:100000000C94E7010C942E020C942E020C942E02F8
:100010000C942E020C942E020C942E020C942E02A0
:100020000C942E020C942E020C943A1E0C940E1F6B
:100030000C94AE180C942E020C942E020C942E02EA
:100040000C942E020C942E020C942E020C942E0270
:100050000C942E020C9405190C942E020C942E0272
:100060000C942E020C942E020C942E020C942E0250
:100070000C942E020C942E020C942E020C942E0240
:100080000C942E020C942E020C942E020C942E0230
:100090000C942E020C942E020C942E020C942E0220
:1000A0000C942E020C942E020C942E0200002900B7
:1000B0001E001F002000210022000000000014008C
:1000C0001A0008001500170000002B00040016009D
:1000D000070009000A00E10000001D001B000600E7
:1000E000190005000000E000000000001500145990
:1000F0002C00000035003A003B003C003D003E0073
:1001000000000000010001002100010001000000CA
:1001100001000100010001000100010001000000D8
:1001200001000100010001001000000001000000BA
:1001300000000100010001000000010001000100B9
:1001400001000100010000000000010001000100A9
:100150000100010000000100010001000100010098
:100160000100010000000100010001000100010088
:10017000000001000000000001000100010000007B
:100180000100010001000100010001000000000069
:100190000100010001000100010000000100010058
:1001A0000100010001000100010000000100010048
:1001B000010001000100000001000000000001003A
:1001C0000100010000000000000000002A2B2800B0
:1001D00000000000000000000000000000000029F6
:1001E000000000002C1E3420212224342627252E36
:1001F000362D3738271E1F2021222324252633336E
:10020000362E37381F0405060708090A0B0C0D0E99
:100210000F101112131415161718191A1B1C1D2F65
:100220003130232D350405060708090A0B0C0D0E85
:100230000F101112131415161718191A1B1C1D2F45
:100240003130354C000000000000000000000000CC
:1002500000000000000000007E0F00D4FFFFFFC779
:100260000000007804033000000010035000680014
:1002700061006E0074006F006D00000010036700E5
:1002800065006F00630069006E00650000000403F4
:10029000090409025B00030100A0FA09040000013F
:1002A000030101000921110100012240000705811D
:1002B0000308000A090401000203000000092111DB
:1002C0000100012222000705820320000107050327
:1002D00003200001090402000103000000092111AC
:1002E000010001226D000705840320000A1201109D
:1002F000010000000823200700010001020301069D
:1003000060FF0961A1010962150026FF00952075B3
:100310000881020963150026FF00952075089102E7
:10032000C005010980A101850319012AB700150143
:1003300026B700950175108100C0050C0901A101C7
:10034000850419012AA002150126A0029501751045
:100350008100C005010906A1018505050719E029ED
:10036000E715002501950875018102050719002987
:10037000EF1500250195F075018102050819012985
:1003800005950575019102950175039101C005015F
:100390000906A101050719E029E7150025019508BF
:1003A000750181029501750881010507190029FF72
:1003B000150026FF0095067508810005081901291A
:1003C00005950575019102950175039101C01124F0
:1003D0001FBECFEFDAE0DEBFCDBF04B603FE27C0FD
:1003E00080915D0290915E02A0915F02B0916002E7
:1003F0008730904BA740B04BD1F410925D02109221
:100400005E0210925F021092600214BE84B7877F72
:1004100084BF0FB6F894A89580916000886180939E
:100420006000109260000FBEE0E0F8E3099511E073
:10043000A0E0B1E0E8E9F2E402C005900D92AA382C
:10044000B107D9F722E0AAE8B1E001C01D92AD35AD
:10045000B207E1F70E94FF1A0C940F210C940000E0
:1004600081E0089581E008950C94300208950C9481
:1004700036021F93CF93DF9300D000D00F92CDB7F9
:10048000DEB749835A836B8330919D0189819A81BC
:1004900031111DC06623B9F02223A9F00E94B015C6
:1004A000182F682F89819A810E945C1569817A8151
:1004B000812F0F900F900F900F900F90DF91CF91A1
:1004C0001F910C9438090E948815182FEFCF0E94B5
:1004D000B01569817A81EDCFFC01262F40815181D1
:1004E0006281738184810C943902CF93DF93EC0194
:1004F00060E00E946C02BE01DF91CF910C94370244
:10050000FF920F931F93CF93DF93E82FF0E0EC530C
:10051000FE4FF490C82FC695C695C695D0E0FE0153
:10052000EC5AFD4F0491877010E0082E02C015951B
:1005300007950A94E2F701701127CC5BDD4FFE01AD
:10054000C491D0E002C0D595C7958A95E2F7C170F5
:10055000DD270115110519F081EE0E946A0D209723
:1005600019F086EE0E946A0D8F2D0E94430ECD2B4E
:1005700019F086EE0E94F40D012B41F081EEDF911F
:10058000CF911F910F91FF900C94F40DDF91CF91BB
:100590001F910F91FF900895EF92FF920F931F9379
:1005A000CF93DF93EC01162F0AE08881882309F4AA
:1005B00054C0813009F04EC08981813099F47E01A8
:1005C00022E0E20EF11C8A810E94430EE70121968F
:1005D000812F815050F3EFE9FFE03197F1F700C030
:1005E0000000F7CF823041F47E0182E0E80EF11C7A
:1005F0008A810E946A0DEACF833041F47E01E2E0F5
:10060000EE0EF11C8A810E94F40DE0CF843011F0CF
:100610002196DDCF2A81229690E080E0AE014F5FE7
:100620005F4F2053330B2A30310548F0019778F2A1
:10063000EFE9FFE03197F1F700C00000F7CF089F26
:10064000B001099F700D1124C901860F971F2981E0
:10065000EA01E4CF0E948002BACFDF91CF911F91CF
:100660000F91FF90EF90089560E00C94CC028F9270
:100670009F92AF92BF92CF92DF92EF92FF920F9331
:100680001F936B017C0181E090E0A0E0B0E04C01A1
:100690005D0104C0880C991CAA1CBB1C4A95D2F7AA
:1006A000B501A4014C015D0104C0880C991CAA1C71
:1006B000BB1C2A95D2F7482959296A297B2904C0ED
:1006C000880F991FAA1FBB1F0A95D2F78A019B01A9
:1006D0000C211D212E213F2104171507260737075E
:1006E00089F48C299D29AE29BF29BC01CD011F9118
:1006F0000F91FF90EF90DF90CF90BF90AF909F90C1
:100700008F90089580959095A095B0958C219D210E
:10071000AE21BF21EACF0F93382F262F6091EF0132
:100720007091F0018091F1019091F201042F432F1B
:100730000E9437030F910C949A140E943C190E9456
:10074000FA16811102C00E9497170C94FD050C94B3
:10075000000608950C94A90381E008950C94AC035D
:10076000CF93C82F0E94AA038C2FCF910C94AE0375
:1007700008950E94C3100E94B8032FEF84E39CE009
:10078000215080409040E1F700C000000C942919EE
:100790000F931F93CF93DF93EC0161E00E946C02F3
:1007A0008C01BE010E946F07882359F1BE01C80168
:1007B0000E943402882329F1BE01C8010E948E0ADA
:1007C0008823F9F0BE01C8010E94E00A8823C9F01D
:1007D000BE01C8010E94030C882399F08A818823F6
:1007E00039F001158CE5180751F00E3D1C4579F0E4
:1007F000CE01DF91CF911F910F910C9432020E9494
:10080000B90380E0DF91CF911F910F9108950E946D
:100810009717F7CF90E080E008950895FC01EE0F60
:10082000FF1FEC59FD4F859194910895CF93DF936D
:100830000E9438090E942205EC01811520E59207EB
:1008400008F041C0811530E4930708F0B4C0803E41
:10085000910518F5803C910508F09DC0883A9105F6
:1008600070F4853A910508F08EC081309105F9F059
:100870000097E9F00497D8F4D0E0C0E018C08F3BAF
:100880009105D0F7C85AD0E0CC0FDD1FC35FDE4F13
:100890000990D881C02DD4640AC08115904258F4C3
:1008A000C11581E0D80718F4C83ED10528F7CE015C
:1008B000DF91CF910895C11590E3D90708F071C079
:1008C000CE019F706AC0811525E5920758F5811504
:1008D00034E5930708F09EC0811542E5940750F473
:1008E000C11581E5D80708F469C0DC2FCC27C16F9A
:1008F000D06ADDCF982F969596959E012370332769
:10090000C115D34508F077C0C1E0D0E002C0CC0FDC
:10091000DD1F2A95E2F720E2929FC0011124C82B27
:10092000D92B67C0C11589E5D807A8F4C11598E58A
:10093000D90708F074C0C11526E5D20708F09CCF8E
:100940008C2F0E94B905C82FD0E0DC2FCC27CC27F4
:10095000DF71D062ACCFC1153AE5D30708F464C0AB
:10096000CE0190568115904208F086CF8D2F8F7161
:100970000E94B90590E0982F882788279F719C01D5
:100980002C2BE901E6CFC55AD0E0C55CDE4FC8810B
:10099000D0E0D0648CCF805C91090E940E04EC0101
:1009A00086CFCE019927D3FF03C0EC01D86C7FCF4F
:1009B000EC01D06C7CCFDF70D06A79CFCE01E4E05F
:1009C00096958795EA95E1F783702C2F26952695C5
:1009D000237090E2299F90011124382B8C2F837073
:1009E000C1E0D0E002C0CC0FDD1F8A95E2F7C22B38
:1009F000D32BDC685CCFC1E0D0E002C0CC0FDD1FA0
:100A00002A95E2F730E2939FC0011124C82BD92B1D
:100A1000DA684DCFD82FCC27C46FD06A48CFDC2FEF
:100A2000CC27C06FD06A43CF8C2F8F700E94B9053E
:100A300034E0D695C7953A95E1F7CF709C2FEC013D
:100A4000D06935CF82389105B1F1B0F48133910589
:100A500009F475C048F48932910509F469C08A32F5
:100A6000910509F473C008958533910509F459C0BF
:100A70008933910501F10895833E9105A9F138F478
:100A8000803E9105F9F0823E910549F10895863E38
:100A90009105A9F1873E9105C9F1843E910519F5AB
:100AA00020914F0221FF1FC080914E0284FD14C08F
:100AB00087EE90E0089520914E022370A1F080EE21
:100AC00090E0089520914E0220FD47C030914F02E2
:100AD00030FF09C024FF44C090E080E004C02091B2
:100AE0004E0222FDF7CF089520914E0222FD3BC019
:100AF00030914F0230FDE3CF24FFF5CFEDCF2091B1
:100B00004E0223FFF0CF24FDE7CFD2CF20914E023B
:100B100023FD2CC030914F0231FFEECF84EE90E0E8
:100B2000089520914E0225FFDECF89E290E00895DE
:100B300020914E0225FFD7CF85E390E008952091C4
:100B40004E0226FFD0CF8AE290E0089520914E0217
:100B500026FFC9CF81E390E0089589E390E00895EE
:100B600083EE90E0089582EE90E0089586EE90E0A6
:100B7000089590914E0292FF06C0282F28712830C8
:100B8000F9F4877F846093FF06C0282F28712831ED
:100B9000F1F4877E846120914F0220FF06C0382F38
:100BA00038713830D9F4877F816021FF06C0282F43
:100BB00028712831D1F4877E816194FD877E089564
:100BC000282F24712430F9F68B7F8860DCCF282F02
:100BD0002471243101F78B7E8861DDCF382F31718C
:100BE000313019F78E7F8860E0CF282F21712131B5
:100BF00021F78E7E8861E1CF08950C94FC0508955D
:100C00000C94FF05E82FF0E0EB5BFD4F8081089529
:100C1000089580EA8A95F1F70895CF93DF93A5E4CC
:100C2000B1E04AE451E0C1E0D0E08D91E82FE295D7
:100C3000EF70F0E061A18F709E0101C0220F8A95D4
:100C4000EAF7922F9095962391A382A1822B82A3FB
:100C50004A175B0751F7AEE3B1E061E070E08D91B8
:100C6000E82FE295EF70F0E041A18F709B0101C089
:100C7000220F8A95EAF7922F9095942391A382A14F
:100C8000822B82A381E0A534B80749F71092400275
:100C900010924502109241021092460210924202B6
:100CA000109247021092430210924802109244029E
:100CB0001092490285E00E94E106DF91CF910C94E9
:100CC0009D038F929F92AF92BF92CF92DF92EF924D
:100CD000FF920F931F93CF93DF9385E4A82E81E0BB
:100CE000B82E00E412E0912CCC24C394D12CF50151
:100CF00081915F01C82FC295CF70D0E099A18F700C
:100D0000760101C0EE0C8A95EAF7892F8E2989A316
:100D10008AA18E2C809488218AA30E940906EEE382
:100D2000F1E050E040E020E03191A32FA295AF70B8
:100D3000B0E090968C9190E03F7002C095958795B9
:100D40003A95E2F780FD39C08C2D042E01C0880F42
:100D50000A94EAF7282B4F5F5F4F4730510521F780
:100D600089A1882289A28AA1E82AEAA2F8018081C1
:100D7000281729F1208381E0982A0F5F1F4FFAE49A
:100D8000AF16F1E0BF0609F0B2CF292D45E065E4CA
:100D900072E080E492E00E94E2060E94A703892D9F
:100DA000DF91CF911F910F91FF90EF90DF90CF9047
:100DB000BF90AF909F908F90089580E0CBCF80E060
:100DC000DBCF0895FF920F931F93CF93DF93F82EFD
:100DD000092F162FD72FC42F222349F081E08093AB
:100DE0008C010E94DE1890938B0180938A01809180
:100DF0008C018823A1F080918A0190918B010E943F
:100E0000F618069760F0EF2DF02FA12FBD2FCE0F13
:100E1000DF2FD11DEC17FD0741F410928C01DF91FB
:100E2000CF911F910F91FF90089581918D93F2CFF3
:100E300082E290E00E94CD20803289F483E290E04B
:100E40000E94CD20803159F484E290E00E94CD20B0
:100E500091E0803309F090E0892F8170089580E05F
:100E6000FCCFCF93C82F6FEF811160E282E290E058
:100E70000E94DB206FEFC11160E183E290E00E94ED
:100E8000DB206FEFC11160E384E290E0CF910C941E
:100E9000DB2080E00E9431070C94F416089585E26F
:100EA00090E00E94CD20682F70E090E080E00895EF
:100EB00085E290E00C94DB200E944E070E94180708
:100EC00081110CC060E070E0CB010E9458070E94C5
:100ED000B0080E949C0981E00C9431070895CF93DB
:100EE000FB01C281CC2309F19C0122513F452031F5
:100EF000310520F582510E94AC09C0E08C2FCF91C2
:100F0000089581E00E94C01443E062E081E00E9405
:100F10008B03F3CF81E00E94E11443E062E081E0C3
:100F20000E948B03EBCF82E0F6CF8031FFE59F0775
:100F300089F381319F45B9F3C1E0E0CF8031EFE51E
:100F40009E07F9F281319F45C9F682E0DBCF2FEF92
:100F5000FC0120830895EF92FF920F931F93CF938C
:100F6000DF93EC01062FE881E150E33108F05EC029
:100F7000F0E0EF5EFE4D0C94C020198289E08A8378
:100F8000602FCE01DF91CF911F910F91FF90EF90D5
:100F90000C94F3198981823069F0833071F08130CB
:100FA000D9F40E94EA180E94C6206A837B838C834E
:100FB0009D83E6CF0E944F07F6CF7E0122E0E20E2E
:100FC000F11C10E0812F0E940206F70181937F013E
:100FD0001F5F1530B9F7D4CF602FCE010E94A7074D
:100FE000CFCF89818230C1F76A817B818C819D81DD
:100FF0000E94C6200E945807C3CF4B816A81898115
:101000000E9482089827892798279D838C83B8CFD0
:101010002C813D813227232732274B816A818981A8
:101020000E949B08ADCF0E94B008AACF8FEF8883A3
:10103000A7CF0E9445098983A3CF0E94470998271B
:10104000892798279A8389839BCF6B8170E0898158
:101050009A81AE014C5F5F4F9827892798270E949D
:101060004A098ECF6B8170E089819A81AE014C5F15
:101070005F4F9827892798270E94710981CF0E9486
:101080009C097ECF0E947008D6CF6B8170E0898169
:101090009A81AE014C5F5F4F9827892798270E945D
:1010A000E8086ECF6B8170E089819A81AE014C5F58
:1010B0005F4F9827892798270E940E0961CF0E94C9
:1010C00049075ECF0E94F319FFEF21EE84E0F15053
:1010D00020408040E1F700C000000E94291950CF55
:1010E00084E0089550E0440F551F9EE0699F400D35
:1010F000511D112496E4899F400D511D1124CA01F0
:10110000869608950F931F93CF93DF930E947208E2
:101110008C010E94CD20C82FD0E0DC2FCC27C80145
:1011200001960E94CD209E01282BC901DF91CF910D
:101130001F910F9108950F931F93CF93DF93122F59
:10114000032F0E947208EC01602F0E94DB20612FA8
:10115000CE010196DF91CF911F910F910C94DB206E
:10116000AF92BF92CF92DF92EF92FF921F93CF93F5
:10117000DF938CEAC82E80E0D82ED0E07601C0E064
:1011800014C0F50125913491412F6C2F8D2F0E94B1
:101190009B0882E0A80EB11C1F5F173091F78EE00C
:1011A000E80EF11CCF5FC53019F0570110E0E9CF10
:1011B000DF5F86E4C80ED11CD43001F7DF91CF91F8
:1011C0001F91FF90EF90DF90CF90BF90AF90089568
:1011D000EF92FF920F931F93CF93DF93EC018A015D
:1011E0007C01E60EF71ECE018696CE15DF0539F49A
:1011F000DF91CF911F910F91FF90EF900895C8312B
:1012000021E0D20740F40E94CD20F80180830F5FD7
:101210001F4F2196E8CFF8011082F9CFCF92DF92CD
:10122000EF92FF920F931F93CF93DF937C016A019C
:101230008C01060F171FEC01CE018696C017D1074F
:1012400049F4DF91CF911F910F91FF90EF90DF90C4
:10125000CF900895C83121E0D20740F4FE01EE1985
:10126000FF09EC0DFD1D60810E94DB202196E4CF7B
:10127000462F843038F4753028F4673018F4672F1F
:101280000C94820890E080E0089580E1089582EC5B
:1012900092E00895EF92FF920F931F93CF93DF9305
:1012A000EC018A017C01E60EF71ECE01825C9E4FA6
:1012B000CE15DF0539F4DF91CF911F910F91FF908B
:1012C000EF900895C23C22E0D20740F40E94CD2066
:1012D000F80180830F5F1F4F2196E7CFF80110823E
:1012E000F9CFCF92DF92EF92FF920F931F93CF939C
:1012F000DF937C016A018C01060F171FEC01CE0100
:10130000825C9E4FC017D10749F4DF91CF911F91A6
:101310000F91FF90EF90DF90CF900895C23C22E0B4
:10132000D20740F4FE01EE19FF09EC0DFD1D6081AE
:101330000E94DB202196E3CFCF93DF93CEE3D1E071
:1013400060E0CE010E94DB202196C11584E0D80721
:10135000B9F7DF91CF910895DF92EF92FF920F934B
:101360001F93CF93DF9300D000D0CDB7DEB7F82E18
:101370008FE08F1540F08FEF93E00E94CD200EE3B9
:1013800011E08823C1F00F900F900F900F90DF9124
:10139000CF911F910F91FF90EF90DF90089501156D
:1013A00084E0180781F3C8010E94CD20811101C09B
:1013B000FA940F5F1F4FF110F2CF19821A821B822D
:1013C0001C82DD24D39478018FEFE81AF80AC80153
:1013D0000E94CD2089831A828823A9F29FEF980F5B
:1013E000933078F48A83D9820E5F1F4FC7010E9421
:1013F000CD208B83882339F2CE0101960E943403DD
:10140000E2CF8701F9CFAF92BF92CF92DF92EF92F6
:10141000FF920F931F93CF93DF937C015B01C42F47
:10142000D22FFC0182818823F9F040938F010E9422
:10143000DE1890938E0180938D0180E28C0F8830AE
:1014400008F061C0C77081E001C0880FCA95EAF753
:10145000DF91CF911F910F91FF90EF90DF90CF9090
:10146000BF90AF900C94560E10918F01141340C092
:1014700080918D0190918E010E94F6186C01B70148
:10148000C5010E943913C816D90690F5C0E2CD0FE8
:101490001D17B9F080E2810F883040F4177081E0A9
:1014A00001C0880F1A95EAF70E945D0EC83048F413
:1014B00081E09D2F977001C0880F9A95EAF70E94EE
:1014C000560E802F0E94430EC830E8F4D77081E09A
:1014D00001C0880FDA95EAF7DF91CF911F910F9144
:1014E000FF90EF90DF90CF90BF90AF900C945D0E87
:1014F00080E28C0F883038F4C77081E001C0880F1B
:10150000CA95EAF7E9CFDF91CF911F910F91FF9034
:10151000EF90DF90CF90BF90AF9008950F939C0114
:10152000CB01233F4CE5340759F1A8F4283DFCE5F5
:101530003F0701F1293D4CE53407D1F1273D3C45FA
:1015400091F406E221EE41EE67ED7CE50E94030A8C
:1015500080E00F910895253FFCE53F07E9F0B0F0EA
:10156000263F3C45F9F0FC018281882339F1109235
:101570008F01EFCF07E225EE45EE68ED7CE5E6CF83
:1015800006E221EE40EE63EF7CE5E0CF07E225EED8
:1015900044EE64EF7CE5DACF06E221EE42EE65EF41
:1015A0007CE5D4CF07E225EE46EE66EF7CE5CECFB4
:1015B00008E221E045EE69ED7CE5C8CF81E0C9CFC6
:1015C000CF93DF93EC01FB018281882309F419C1D9
:1015D000C230FCE5DF07C0F1C6319CE5D90730F029
:1015E0009E012A5F3C452930310570F50E940D1798
:1015F00090934F0280934E02C031ECE5DE0709F470
:10160000CFC008F05BC0C8308CE5D80709F4B6C07D
:1016100088F5C430ECE5DE0709F4A8C0C0F4C23098
:101620008CE5D80709F49CC080914E028260C330DB
:10163000DC4509F498C080914E0290914F020E94BF
:101640001B170E94C31080E0DF91CF910895809115
:101650004E028061C630ECE5DE0709F484C080915B
:101660004E028860C730DC4508F47DC080914E0290
:10167000806279C0CC308CE5D80709F489C070F459
:1016800080914E028C60CA30ECE5DE0709F46BC035
:1016900008F478C080914E028E7F65C0CE308CE514
:1016A000D80709F479C080914E028B7FCF30DC459A
:1016B00008F459C080914E028F7E55C0CB3FECE5B7
:1016C000DE0709F457C030F5C3318CE5D80709F4BB
:1016D0006FC078F4C131ECE5DE0709F465C0C231B2
:1016E000DC4509F0A8CF0E94C31080914E028F778D
:1016F0003AC0C5318CE5D80709F462C008F476C059
:1017000080914F028160CA3FDC4509F094CF8093FD
:101710004F0291CFCF3FFCE5DF0709F44DC088F4BD
:1017200080914F028D7FCD3F9CE5D90781F3809159
:101730004F028E7FCE3FDC4550F380914F02836095
:10174000E6CFC130FDE5DF0709F459C008F444C015
:1017500080E0C230DD4509F06ECF0E9499176BCF53
:1017600080914E02816080934E0265CF80914E023F
:101770008460F9CF80914F028260C9CF80914E0280
:101780008064F1CF0E94C31080914E028068EBCF3D
:1017900080914E028D7FE7CF80914E02877FE3CF0D
:1017A00080914E028F7DDFCF80914E028F7BDBCF09
:1017B00080914E02837FD7CF80914F028C7FA7CF3D
:1017C00080914E0282FB992790F921E0922790FBAD
:1017D00082F990FB83F9C7CF80914F02982F9095A3
:1017E00091708E7F892B90FB81F991CF0E94C3105D
:1017F00090914E02892F97FB87F98058B4CF81E0F2
:10180000ACCF81E021CFCF93DF93EB0186319C45B4
:1018100011F50E9445169A81992399F08A7A91E0F0
:1018200009F490E090939001811109C089E20E942F
:1018300020160E94911680E0DF91CF91089585E3F4
:10184000F6CF80919001811104C089E20E94271691
:10185000F0CF85E3FBCF81E0EFCF909396018093AB
:1018600095010895E0919501F0919601309721F04E
:101870000190F081E02D099480E00895E0919501B8
:10188000F0919601309799F020910C01222359F0A4
:1018900020914E0227FF07C0DC012C9111962C935A
:1018A000119725E02C930280F381E02D099408958F
:1018B00020919301309194012817390771F090938A
:1018C000940180939301E0919501F09196013097F6
:1018D00021F00680F781E02D09940895209191016F
:1018E000309192012817390771F0909392018093FB
:1018F0009101E0919501F0919601309721F00084DB
:10190000F185E02D0994089585B7806885BF85B776
:10191000806885BF0895089508950C948B0C0895F0
:101920000C948F0C0E94840C0E948C0C0C948D0CD7
:1019300081E008950C94980C0E94D5180E940D0621
:101940000E945C070E9453190C94900CBF92CF9296
:10195000DF92EF92FF920F931F93CF93DF93CDB758
:10196000DEB72A970FB6F894DEBF0FBECDBF0E9438
:1019700061060E949A0C882309F45CC088E9C82E8D
:1019800081E0D82E10E000E0B02E802F0E940206E9
:10199000E82EF601F1906F01F81609F445C0809128
:1019A0001C0281FD0E9408069F2D9E2580E0FF24D9
:1019B000F394292F2F21A1F18E83BF82EF2081E0A4
:1019C00009F480E088870E94DE188160782F9A876A
:1019D00089874E815F8168858A850E943B0DF80169
:1019E000E856FE4F8081F826F0820E94320C9091DA
:1019F0009701891781F10E94320C809397012A96F2
:101A00000FB6F894DEBF0FBECDBFDF91CF911F910F
:101A10000F91FF90EF90DF90CF90BF900C94B003A8
:101A20008F5FFF0C873029F60F5F1F4F05301105C0
:101A300009F0AACF8FEF89838A831B820E94DE1868
:101A40008160782F9D838C8349815A816B818D8140
:101A50000E943B0DCACF2A960FB6F894DEBF0FBE88
:101A6000CDBFDF91CF911F910F91FF90EF90DF904D
:101A7000CF90BF900895CF93DF93CDB7DEB72B976C
:101A80000FB6F894DEBF0FBECDBF4F83588769876E
:101A90007A878B871E821D8285E0FE013796DE01E4
:101AA000119601900D928A95E1F749815A816B81D7
:101AB0007C818D819E812B960FB6F894DEBF0FBE80
:101AC000CDBFDF91CF910C943C13FC0180819181BB
:101AD0000C94F215CF93C82F882309F483C0823861
:101AE000C1F40E94320C81FD7DC089E30E94201662
:101AF0000E9491162FEF81EE94E02150804090409B
:101B0000E1F700C0000089E30E942716CF910C94F2
:101B100091168338A1F40E94320C80FD63C083E5E6
:101B20000E9420160E9491162FEF81EE94E0215022
:101B300080409040E1F700C0000083E5E5CF8438A5
:101B4000A1F40E94320C82FD4DC087E40E94201651
:101B50000E9491162FEF81EE94E02150804090403A
:101B6000E1F700C0000087E4CFCF8CEF8C0F813A03
:101B700090F46C2F80910001909101010E94B217A6
:101B8000882329F08C2F0E9427160E9491168C2FF3
:101B90000E942016BBCF80E28C0F883048F4C770BB
:101BA00081E001C0880FCA95EAF70E944816AECFBF
:101BB000EBE5EC0FE33040F4F0E0E858FE4F8081B5
:101BC00090E0CF910C94580CC85AC73158F4EC2FC0
:101BD000F0E0EE0FFF1FE65BFE4F80819181CF9119
:101BE0000C946E0CCF910895882309F44BC0823871
:101BF00071F40E94320C81FF45C089E30E942016D7
:101C00000E94911689E30E9427160C94911683383E
:101C100059F40E94320C80FF35C083E50E942016E3
:101C20000E94911683E5EFCF843859F40E94320C5C
:101C300082FF28C087E40E9420160E94911687E444
:101C4000E2CF9CEF980F913AF0F290E2980F983023
:101C500050F4877091E001C0990F8A95EAF7892FB7
:101C60000E944E16D2CF9BE5980F933020F490E05F
:101C700080E00C94580C885A873120F490E080E082
:101C80000C946E0C0895CF93C82F0E946A0DC9332F
:101C900049F42FEF87EE93E0215080409040E1F728
:101CA00000C000008C2FCF910C94F40D882321F0FC
:101CB0000E9448160C9491160895882321F00E94E2
:101CC0004E160C9491160895BF92CF92DF92EF9228
:101CD000FF920F931F93CF93DF936C01D62FC72FE3
:101CE000FC01058102950F70128111110E94651689
:101CF0000E943E16E82E882391F01123D1F08C2FFC
:101D0000807F803421F080E28D0F883090F082E077
:101D10000E94DC160E943E1691E0E82EE926BC2EB9
:101D2000B2949FE0B922EB2DF0E0EC5DFE4D0C94F7
:101D3000C020E12CF4CF0C2F0F70C07F11F0029562
:101D4000007F1123A9F0002359F080E28D0F883025
:101D500010F0D11109C0802F0E9448160E949116E0
:101D60008D2F0E946A0D14C0802F0E945816F6CF46
:101D70008D2F0E94F40D002359F080E28D0F8830E2
:101D800010F0D1112CC0802F0E944E160E94911687
:101D90002B2D2850330B2430310520F40E94320CB7
:101DA0000E94B003EE2009F493C10E943A1680FD10
:101DB0008FC1F60112820E9434160E94C014C6011F
:101DC0000E9489100E943416DF91CF911F910F91CC
:101DD000FF90EF90DF90CF90BF900C94E114802F94
:101DE0000E945E16D3CFFC2FFF70FF2EC07FC03243
:101DF00019F0F29480EFF822DD2369F0D13049F137
:101E0000112391F1002351F1F601858180FFA8CFC4
:101E10008F70858323C0112381F0011106C00E94B9
:101E200078168F290E94560EB3CF0130C1F70E9459
:101E300078168F290E947E16ABCF011106C00E9432
:101E400087168F2D0E945D0EA3CF013009F4A0CF1D
:101E5000F6CF112329F0063008F09ACF8F2DE2CF6C
:101E6000053008F095CFEDCF002359F3D93349F46D
:101E7000FFEF27EE33E0F15020403040E1F700C0A3
:101E800000008D2F0E94F40D83CF8C2F86958695B0
:101E9000837069F0813009F07BCF8D2F9C2F937078
:101EA000111102C090E080E00E946E0C71CF8D2F66
:101EB0009C2F9370111102C090E080E00E94580C9A
:101EC00067CF8C2F837009F041C0111161CF4D2F66
:101ED000429546954770440F440F0D2F0F7010E048
:101EE00030E020E0042E04C0000F111F221F331F1A
:101EF0000A94D2F760E070E0CB01D4FF0FC06FE02E
:101F000070E080E090E004C0660F771F881F991F83
:101F10004A95D2F76095709580959095C695C6952F
:101F2000C370602B712B822B932BC23049F058F475
:101F3000C13019F00E9472142BCF0E94601428CF78
:101F40000E94841425CF0E945E1422CF869511230F
:101F500011F08C2F8170882309F41ACF4D2F4295F0
:101F600046954770440F440F0D2F0F7010E030E07E
:101F700020E0042E04C0000F111F221F331F0A94FB
:101F8000D2F760E070E0CB01D4FF0FC06FE070E0EB
:101F900080E090E004C0660F771F881F991F4A9564
:101FA000D2F76095709580959095C695C695C3704B
:101FB000602B712B822B932BC23049F058F4C13027
:101FC00019F00E943715E4CE0E942515E1CE0E943B
:101FD0004915DECE0E949A14DBCECF70112329F072
:101FE0008C2F0E94C0148D2F1DCF8D2F0E945D0E4F
:101FF0008C2F0E94E114CCCED23F89F160F4D03F07
:10200000C9F0D13F29F1112309F442C00111A8CE32
:102010008C2F8F7121C0D33F39F1D43FA1F7112309
:1020200069F1CF718C2F0E94C01463E08C2F0E9445
:10203000C716AECE112341F0053008F0A9CE8C2F83
:102040008F710E940415A4CE063008F0A1CEF7CF00
:102050008C2F8F71112369F20E94C01499CE8C2F9E
:102060008F711123C9F3C5CF112329F08C2F8F71E4
:102070000E94AB148DCE0E94A6148ACE81E00E94ED
:10208000DC16023008F484CE82E00E94DC1680CE9A
:10209000002359F0D93309F0F4CE8FEF97EEE3E047
:1020A00081509040E040E1F7EACE8C2F8F71A1CFB4
:1020B0004C2F4F706D2FC6010E940A040E94D61348
:1020C00067CE4C2F4F706D2FC6010E940D0460CE5D
:1020D000DF91CF911F910F91FF90EF90DF90CF9004
:1020E000BF9008950F931F93CF93DF93EC01688106
:1020F00079818A810E94FC158C010E945B150E94E7
:102100005D14B801CE01DF91CF911F910F910C9416
:10211000640ECF93DF93EC018B819C81892B29F096
:102120008881998189238F3F59F4DF91CF91089558
:10213000CE010E947210CE01DF91CF910C947502F6
:10214000CE010E94C8038111F3CF0E943E1688235E
:1021500061F38A81882349F382E0DF91CF910C9467
:10216000DC160E9465160E9475160E94911690E07A
:1021700080E00E94580C90E080E00C946E0C0E946D
:102180002E160C94B1100E9455160C94BF10E92F16
:10219000E295EF70E250EE3070F4F0E0EC5CFE4D52
:1021A0000C94C020803F19F020F4883E20F481E098
:1021B0000895843FE1F380E00895883EC0F3813FB5
:1021C000D1F7F5CF93FB882780F908950E94F21587
:1021D0000C94C710CF93DF9300D000D00F92CDB7EF
:1021E000DEB70F900F900F900F900F90DF91CF916F
:1021F0000895CF93DF9300D000D000D0CDB7DEB7E5
:1022000026960FB6F894DEBF0FBECDBFDF91CF91FB
:1022100008951F93CF93DF93C0919E0116E08091A4
:102220009F018C1304C0DF91CF911F910895D0E0DE
:102230001C9FF0011D9FF00D1124E056FE4F4081C0
:10224000518162817381848195810E94F910219668
:10225000C770E5CF4091D0015091D1016091D2017A
:102260007091D3018091D4019091D5010C94F91013
:102270001F93CF93DF938091D501807FA9F4809144
:10228000D201882389F080919E01C0919F016091C5
:10229000D0017091D101A091D301B091D401D62F7A
:1022A000D72316E0C81304C0DF91CF911F91089582
:1022B00090E0109711F0DF3F19F401968770F2CF8C
:1022C000189F9001199F300D1124F901E056FE4F1F
:1022D00041814713F2CF40814613EFCF4281411134
:1022E000ECCF438154814A1B5B0B483C510528F7D6
:1022F0008091D5018F7080618093D501F901EB55F4
:10230000FE4F80818F708061808380ED91E00E941C
:102310008910DF91CF911F910C940911AF92BF9258
:10232000CF92DF92EF92FF920F931F93CF93DF93A1
:10233000CDB7DEB761970FB6F894DEBF0FBECDBF45
:102340008C0185E0F801DE011D9601900D928A95C1
:10235000E1F7F80140815181E28080EDC82E81E0F3
:10236000D82E6091D3017091D4016115710509F4E3
:1023700061C19091D0012091D101892F82238F3F9B
:1023800009F458C1A380B480F090D201F501E61B96
:10239000F70BFF2009F4FCC08091D501382F307F66
:1023A000E83CF10508F0B2C0311179C0FE2C2513CC
:1023B00023C0941321C0E1101FC08F7080618093EF
:1023C000D5010E942A11C6010E9489108091D50171
:1023D000F80185838F2D61960FB6F894DEBF0FBE8E
:1023E000CDBFDF91CF911F910F91FF90EF90DF90C4
:1023F000CF90BF90AF900895AB2829F0842F85230C
:102400008F3F09F033C180E0F82FF170DF2E80FF9D
:102410003CC080919E0120919F0136E0821315C03F
:102420004D875E878D859E850E94F215292F229506
:102430002F702230F0F0243018F59F70F1F0F80181
:102440009581907FD1F4D12C1EC090E0389FF0018F
:10245000399FF00D1124E056FE4F6181651306C0CF
:102460006081641303C062816E110FC00196877092
:10247000D5CF9F7011F0882331F3805E883018F338
:10248000C8010E948910FD2CA5CFEE2009F4A2CF2F
:102490008091D50181608093D501F12C9BCF2513CC
:1024A00006C0941304C0F801EE2009F48DC04D87D6
:1024B0005E878D859E850E94E610882319F1EE20A7
:1024C00009F18091D501803270F02091D0013091D6
:1024D000D10138872F831986BB86AA868C87CE01C7
:1024E00007960E94891086E0F801A0EDB1E0019006
:1024F0000D928A95E1F70E9438110E942A11FF245B
:10250000F39468CFC8010E948910F9CF311113C02C
:102510007A2DB98AA88A6E2D89890E94EA1080EDE9
:1025200091E00E94891086E0F60111928A95E9F700
:102530000E942A11B2CF25130FC094130DC0E110D1
:102540000BC0F8018583C8010E94891086E0F6015E
:1025500011928A95E9F73ECF4D875E878D859E85DE
:102560000E94E610882371F2EE2061F28091D5017D
:10257000803208F4B8CF2091D0013091D1013A8354
:1025800029831B82BD82AC828E83CE010196A9CFA6
:10259000E83CF10508F041C0FE2CEE2009F4B2CF72
:1025A00025132AC0941328C08091D50180FD1BC03B
:1025B000982F907FC1F0F8018583903F31F0982FDC
:1025C000907F905F8F70892B8583C8010E9489104E
:1025D00086E0F801A0EDB1E001900D928A95E1F757
:1025E0000E942A11F7CE86E0F801A0EDB1E001903B
:1025F0000D928A95E1F7EECE4D875E878D859E859B
:102600000E94E61081116FCF8091D5018160809387
:10261000D501C8010E948910DDCE7A2DB98AA88A19
:102620006E2D89890E94EA1086E0F60111928A9542
:10263000E9F7D6CFEE2009F465CF4D875E878D850B
:102640009E850E94E610F82E882309F45BCF86E071
:10265000F801A0EDB1E001900D928A95E1F780EDCF
:1026600091E00E94650D0E943811BACF81E08E255D
:10267000CBCE88EC90E008951F93CF93DF93CDB736
:10268000DEB72C970FB6F894DEBF0FBECDBF4F83D9
:10269000588769877A878B879C87CE0107960E9427
:1026A0008E11882369F08A859B85892B39F04F81AB
:1026B0005885842F85238F3F09F071C016E05FC0D5
:1026C00086E0FE013796DE01119601900D928A9503
:1026D000E1F78A859B85892B89F38F8198858923EA
:1026E0008F3F61F320919F0130E0C901019687700F
:1026F000992740919E014817190671F40E94C31052
:1027000010929F0110929E0186E0E0EDF1E0DF0162
:102710001D928A95E9F7D2CF96E0929FD001939FC0
:10272000B00D1124A056BE4FFE01319601900D92BE
:102730009A95E1F780939F010E940911BFCF819F75
:10274000C001112480569E4F0E948E118823E9F00B
:10275000E0919E011E9FF0011124E056FE4F408142
:10276000518162817381848195810E94F9108091E9
:102770009E0190E001968770992780939E01809139
:102780009E0190919F018913DACF2C960FB6F89491
:10279000DEBF0FBECDBFDF91CF911F910895698538
:1027A0007A858B859C850E94F91088CFEF92FF92E5
:1027B0000F931F93CF93DF938C01892B81F0F12C22
:1027C000EE24E394E8012196F8018491843770F4B3
:1027D000843008F05FC08130B1F08230A1F1DF9128
:1027E000CF911F910F91FF90EF900895853709F4D5
:1027F0004CC008F43DC09CE7980F903780F78F7766
:102800000E94F40D49C00E5F1F4FFE01849190E2BB
:10281000980F983060F48770FE2D01C0FF0F8A95E5
:10282000EAF78F2F0E9468160E94911602C00E943C
:102830006A0D8F2D815030F2EFE9FFE03197F1F70B
:1028400000C00000F7CF0E5F1F4FFE01849190E2A1
:10285000980F983050F48770FE2D01C0FF0F8A95B5
:10286000EAF78F2F0E946E16DFCF0E94F40DE1CFA2
:102870000E5F1F4FFE01C491C150D8F28FE99FE057
:102880000197F1F700C00000F7CF0E5F1F4FFE0168
:10289000F490CFCF0E946A0D8E01CBCF08950C9497
:1028A0004E140E944F146093F3017093F4018093CF
:1028B000F5019093F6010C94B11008950C94511405
:1028C0000F931F930091F3011091F4012091F501F2
:1028D0003091F601602B712B822B932B1F910F915E
:1028E0000C9451140F931F930091F3011091F40174
:1028F0002091F5013091F601602371238223932307
:102900001F910F910C9451140F931F930091F30199
:102910001091F4012091F5013091F60160277127A3
:10292000822793271F910F910C9451140C944E14ED
:102930000C9496140E9498146093EF017093F00128
:102940008093F1019093F2010C94B11060E070E07B
:10295000CB010C949A140F931F9341E050E060E078
:1029600070E08A019B0104C0000F111F221F331F5A
:102970008A95D2F7C901B8011F910F910C949A144E
:102980000F931F9341E050E060E070E004C0440FFB
:10299000551F661F771F8A95D2F78091EF0190919E
:1029A000F001A091F101B091F2018A019B01082B85
:1029B000192B2A2B3B2BC901B8011F910F910C94A5
:1029C0009A140F931F9341E050E060E070E004C060
:1029D000440F551F661F771F8A95D2F7CB01BA01A6
:1029E00060957095809590950091EF011091F001A0
:1029F0002091F1013091F20160237123822393230E
:102A00001F910F910C949A140F931F9341E050E083
:102A100060E070E004C0440F551F661F771F8A9561
:102A2000D2F78091EF019091F001A091F101B09166
:102A3000F2018A019B01082719272A273B27C90190
:102A4000B8011F910F910C949A140F931F9300914A
:102A5000EF011091F0012091F1013091F201602B12
:102A6000712B822B932B1F910F910C949A140F931F
:102A70001F930091EF011091F0012091F10130912D
:102A8000F20160237123822393231F910F910C94F1
:102A90009A140F931F930091EF011091F001209170
:102AA000F1013091F20160277127822793271F914E
:102AB0000F910C949A14089527E0929F800D112491
:102AC000982F977041E001C0440F9A95EAF78695D8
:102AD0008695869595E0899FF0011124EA52FE4F74
:102AE00090E080E070E05191DF0111979B01082E8A
:102AF00002C0369527950A94E2F721702195252783
:102B0000242325272C9301968530910561F708959C
:102B100027E0929F800D1124982F977086958695B7
:102B2000869525E0829FF0011124EA52FE4F50E085
:102B300040E080E0219130E0092E02C036952795D3
:102B40000A94E2F721703327042E01C0220F0A9461
:102B5000EAF7822B4F5F5F4F4530510559F70895D3
:102B6000BF92CF92DF92EF92FF920F931F93CF937A
:102B7000DF938C01C090EF01D090F001E090F10163
:102B8000F090F2018091F3019091F401A091F50190
:102B9000B091F601C82AD92AEA2AFB2ACFE1D0E06F
:102BA000BC2ED701C6010C2E04C0B695A7959795EB
:102BB00087950A94D2F780FD0EC0219788F7B12C33
:102BC0008B2DDF91CF911F910F91FF90EF90DF90B0
:102BD000CF90BF900895B8018C2F0E9416040197E2
:102BE00061F3EECFCF93DF93EC010E94B015BE01ED
:102BF000DF91CF910C9416041F93CF93DF93EB01D9
:102C000090919D01992331F0CB01DF91CF911F91DC
:102C10000C94F215882379F0CB010E94B015182F7F
:102C2000682FCE010E945C15BE01812FDF91CF91EC
:102C30001F910C941604CB010E948815182FF4CF15
:102C4000682F80910001909101010C943218682F37
:102C500080910001909101010C943D188091000138
:102C6000909101010C9448188091F7018595859504
:102C7000859508958091F701877008959091F701E7
:102C8000977081E009F480E0089580911B02089517
:102C900090911B02892B80931B020895809590913F
:102CA0001B02982390931B02089510921B02089513
:102CB00090911A02892B80931A0208958095909121
:102CC0001A02982390931A02089510921A020895F6
:102CD00090911902892B8093190208958095909103
:102CE00019029823909319020895109219020895D9
:102CF0008091F801089508950C947B169091F80145
:102D0000981721F08093F8010C947C160895809117
:102D1000F801882329F01092F80180E00C947C16C9
:102D20000895E0910001F091010180911B028083E0
:102D3000E0910001F0910101808190911A02892BAC
:102D40008083E0910001F09101018081909119024E
:102D5000892B80839091F801992381F0E091000103
:102D6000F09101018081892B8083809100019091F5
:102D700001010E949E1781110E9487168091000117
:102D8000909101010C943E0C08950C94C41698E0A7
:102D9000899F90011124622B6093F7010E94C01457
:102DA0008091F7018595859585950C94C5161092AF
:102DB000F70180E00C94C5169091F7018095892366
:102DC0008093F701282F277071F4282F082E000C0C
:102DD000330B9217130639F08595859585950E94DA
:102DE000E1140C94D71608956FEF7FEF90E080E028
:102DF0000C94F92090E080E00E94D52021E08C3EE8
:102E00009E4F09F020E0822F089582E090E00C941C
:102E1000CD2083E090E00C94CD20CF9384E090E02F
:102E20000E94CD20C82F81E290E00E94CD20982FF3
:102E30008C2FCF910895CF93C92F682F84E090E015
:102E40000E94DB206C2F81E290E0CF910C94DB207C
:102E5000AB01BC018FE090E00C94ED20AB01BC0114
:102E600083E190E00C94ED2060E070E0CB010C94E5
:102E70002E1760E070E0CB010E9428170C943417E5
:102E80006CEE7EEF90E080E00E94F92060E082E04E
:102E900090E00E94DB2060E083E090E00E94DB2075
:102EA0001092F3011092F4011092F5011092F601C4
:102EB00060E084E090E00E94DB2060E081E290E04E
:102EC0000E94DB2060E085E090E00E94DB2060E073
:102ED00086E090E00E94DB206FEF87E090E00E94A8
:102EE000DB2040E050E0BA0188E090E00E94ED2055
:102EF00060E08DE090E00E94DB2040E050E0BA010D
:102F000088E190E00E94ED2060E087E190E00E947F
:102F1000DB2040E050E0BA018CE190E00E94ED201F
:102F200060E080E290E00E94DB200C9439170C9462
:102F30004017682F8EE090E00C94DB20FC01329665
:102F400080910C01882321F080914E029EE187FF41
:102F500096E080E0915008F4089521912223D1F366
:102F60008F5FF8CF662301F120910C012223F1F04D
:102F700020914E0227FF1AC0462F4695469546954A
:102F80004E3190F4677021E030E002C0220F331F11
:102F90006A95E2F7840F911DFC01828190E028235D
:102FA000392381E0232B69F480E00895FC013296F7
:102FB00008962191261721F0E817F907D1F7F4CFE9
:102FC00081E008959C01FC0132969FEF80E04191E1
:102FD000461751F09F3F19F4411101C0982F8F5FA0
:102FE0008630A9F79F3F09F40895290F311D97FDF9
:102FF0003A95F90162830895FC0132960896219171
:10300000261303C0DF0111971C92E817F907B9F7DF
:103010000895E62FE695E695E695EE3168F4E80F1B
:10302000F92FF11D677021E030E001C0220F6A9591
:10303000EAF78281822B82830895E62FE695E69552
:10304000E695EE3170F4E80FF92FF11D677021E07D
:1030500030E001C0220F6A95EAF72095828128238B
:103060002283089520910C01222329F020914E0201
:1030700027FD0C9409180C94E21720910C012223CF
:1030800029F020914E0227FD0C941D180C94FC177A
:10309000FC01329680910C01882351F080914E0200
:1030A00087FF06C08EE1DF011D928A95E9F708953A
:1030B00086E0F9CF089508950C945B180E945C187F
:1030C00080915402843049F110921D0288E190E011
:1030D00020E40FB6F894A895809360000FBE20936B
:1030E000600080E00E94B0030E945C1883B7817F7B
:1030F000846083BF83B7816083BF7894889583B7EA
:103100008E7F83BF0FB6F894A89580916000886188
:1031100080936000109260000FBE08950895CF93D1
:103120000E945A180E9461060E948E18C0E08C2FDF
:103130000E940206811105C0CF5FC530C1F7CF9153
:10314000089581E0FCCF08950C94A3180E94C31049
:103150000E94320C0E94B0030C94A4181F921FB658
:103160001F9211248F939F93AF93BF9380911D0261
:10317000811113C080914A0290914B02A0914C02A0
:10318000B0914D024196A11DB11D80934A029093CA
:103190004B02A0934C02B0934D02BF91AF919F910F
:1031A0008F911F901FBE1F90189582E084BD93E001
:1031B00095BD9AEF97BD80936E0008952FB7F89450
:1031C00080914A0290914B02A0914C02B0914D0225
:1031D0002FBF08952FB7F89460914A0270914B0267
:1031E00080914C0290914D022FBF08959C014FB7E2
:1031F000F89480914A0290914B02A0914C02B091B8
:103200004D024FBF821B930B089578941F921FB6F7
:103210001F9211248F939F93AF93BF9380914A0283
:1032200090914B02A0914C02B0914D020196A11DCC
:10323000B11D80934A0290934B02A0934C02B0932D
:103240004D02BF91AF919F918F911F901FBE1F9014
:10325000189587E797E7909301088093000888E125
:103260009AE00FB6F894A895809360000FBE9093F3
:103270006000FFCF0C9449070E9461062FEF86E79C
:1032800091E0215080409040E1F700C000000E9492
:10329000610680E00E94020681FF04C00E943A1984
:1032A0000C94291908950E94FA16811102C00E94F7
:1032B00097170E94051780931C020E940D17909388
:1032C0004F0280934E020E940917682F70E090E031
:1032D00080E00E945E146091EF017091F001809196
:1032E000F1019091F2010C94981480913E0208959E
:1032F0000895CF93DF9300D00F92CDB7DEB79091B2
:103300005402943011F589837B836A839093E9009A
:103310008FEF9091E800815095FD06C095ED9A954C
:10332000F1F700008111F5CF8091E80085FF0DC015
:1033300050E040E063E070E0CE0101960E94E01BA7
:103340008091E8008E778093E8000F900F900F90A7
:10335000DF91CF910895BC0184E00C947919BC01F0
:1033600083E00C947919CF93DF93EC0180910C01E9
:103370008823B1F180914E0287FF32C060E284E081
:103380008093E9008FEF9091E800815095FD06C091
:1033900095ED9A95F1F700008111F5CF8091E80045
:1033A00085FF1BC080910C0170E050E040E081116E
:1033B00004C050E040E068E070E0CE010E94E01BF5
:1033C0008091E8008E778093E80080E2FE01AEE114
:1033D000B2E001900D928A95E1F7DF91CF910895C7
:1033E00068E081E0CDCFCF93FC01603221F5809180
:1033F0005402843001F5C091E900CF702091EC00B7
:10340000922F917020FD90E8C92B82E08093E90013
:103410008091E80080FF0CC050E040E060E270E086
:10342000CF010E94E01B8091E8008E778093E80036
:10343000CF70C093E900CF9108958091530281111C
:1034400009C00E94BF1D0E941C1E8091E200846082
:103450008093E2000895109253020895089508950C
:103460000C94A61842E061EC81E00E943B1D42E210
:1034700061EC84E00E943B1D42E261EC82E00E942C
:103480003B1D42E260EC83E00C943B1D80915602B0
:10349000833009F461C030F48130D1F1823009F415
:1034A0009DC008958A3009F489C08B3009F46FC03B
:1034B000893009F050C080915502813209F04BC02B
:1034C0008091590290915A02009719F0029709F0E1
:1034D00042C08091E800877F8093E8008091E800F7
:1034E00082FF35C09091F3008091F200029729F499
:1034F0008091F1008B7F813021F48091F1008093E5
:103500003E028091E8008B778093E8000C946F1D59
:1035100080915502813AF9F48091E800877F809389
:10352000E8008091590290915A02892B61F460E27F
:103530008EE192E070E00E947E1C8091E8008B7723
:103540008093E800089560E090E080E0F3CF809100
:1035500054028111C3CF089580915502813AD9F761
:103560008091590290915A02892BA9F78091E80025
:10357000877F8093E8008091E80080FFFCCF8091F6
:103580000C018093F1008091E8008E77BDCF80918F
:103590005502813201F78091590290915A02892B8C
:1035A000D1F68091E800877F8093E8000E946F1D2C
:1035B0008091570280930C010C94C31080915502A6
:1035C000813249F68091E800877F8093E8000E946D
:1035D0006F1D8091580280933F020895809155029B
:1035E000813A09F0B8CF8091E800877F8093E800A6
:1035F0008091E80080FFFCCF80913F02C2CFCDB721
:10360000DEB7A0970FB6F894DEBF0FBECDBF84B76C
:10361000877F84BF0FB6F894A89580916000886179
:1036200080936000109260000FBE80E890E00FB6BB
:10363000F89480936100909361000FBE0E94920CF9
:103640000E94BF1D0E941C1E8091E2008460809336
:10365000E20078940E94A5200E949C0C82E091E0F8
:103660000E942D0C13E080915402853039F10E94A4
:10367000A60C809154028430B1F71093E900809138
:10368000E80082FFF0CF8091E80090E085FF09C05C
:1036900050E040E060E270E0CE0101960E942F1CF5
:1036A00091E08091E8008B778093E8009923D9F22C
:1036B00060E2CE0101960E94AB07D5CF0E945E1852
:1036C00080915202882379F20E948F18882359F240
:1036D0000E94CA1BC8CF0C946D1B292F332723309F
:1036E000310521F168F42130310509F449C0223057
:1036F000310509F44AC090E080E030E020E029C0C4
:103700002132310581F122323105A9F7633071058B
:1037100090F7FB01EE0FFF1FE258FE4F2081318131
:1037200065587E4FFB01808190E013C0992781305E
:10373000910599F0009741F08230910589F0039747
:10374000D1F6E4E6F2E002C0EEE8F2E0849190E027
:103750009F01FA01318320830895ECE7F2E0F6CF70
:10376000EAE6F2E0F3CF6330710528F6660F771FC3
:10377000FB01EC57FE4F2081318189E090E0E9CFD9
:1037800082E190E02DEE32E0E4CF8BE590E022E99B
:1037900032E0DFCF80E189BD82E189BD09B400FE5E
:1037A000FDCF8091D8008F7D8093D8008091E0007C
:1037B00082608093E0008091E00081FDFCCF08955D
:1037C000AF92BF92CF92DF92FF920F931F93CF934E
:1037D000DF936C01EB018A010E948E1DF82E81118E
:1037E00023C00115110539F0F80180819181C81BB2
:1037F000D90BC80ED91EB12CA12C2097A9F080910D
:10380000E80085FD22C08091E8008E778093E80073
:1038100001151105A1F0F80180819181A80EB91E52
:10382000B182A08285E0F82E8F2DDF91CF911F917C
:103830000F91FF90DF90CF90BF90AF9008950E94BE
:103840008E1D8823D1F2F82EEFCFF60181916F0102
:103850008093F1002197FFEFAF1ABF0ACECFAF924E
:10386000BF92CF92DF92FF920F931F93CF93DF937C
:103870006C01EB018A010E948E1DF82E811123C07C
:103880000115110539F0F80180819181C81BD90B10
:10389000C80ED91EB12CA12C2097A9F08091E80068
:1038A00085FD22C08091E8008B778093E8000115A8
:1038B0001105A1F0F80180819181A80EB91EB18295
:1038C000A08285E0F82E8F2DDF91CF911F910F916F
:1038D000FF90DF90CF90BF90AF9008950E948E1D13
:1038E0008823D1F2F82EEFCF8091F100F601819379
:1038F0006F012197FFEFAF1ABF0ACECFFC01809175
:103900005B0290915C0286179707A0F06115710524
:1039100029F49091E8009E779093E80090E061157B
:10392000710551F4911108C08091E80082FF34C004
:1039300080E00895BC01F2CF809154028823C1F148
:103940008530C1F18091E80083FD30C08091E800AE
:1039500082FDEACF8091E80080FFE1CF8091F30003
:103960002091F200382F6115710519F028303105CA
:1039700058F091E02830310509F090E02091E800FE
:103980002E772093E800CBCF81918093F100615096
:1039900071092F5F3F4FE7CF80915402882341F098
:1039A000853041F08091E80083FFBECF81E008952B
:1039B00082E0089583E00895FC0180915B0290917C
:1039C0005C0286179707A0F06115710529F48091B4
:1039D000E8008E778093E80090E06115710551F45E
:1039E000911108C08091E80082FF35C080E0089501
:1039F000BC01F2CF809154028823C9F18530C9F10E
:103A00008091E80083FD31C08091E80082FDEACF1B
:103A10008091E80080FFE1CF8091F3002091F200D7
:103A2000382F6115710519F02830310558F091E0F3
:103A30002830310509F090E08091E8008E7780937E
:103A4000E800CBCF84918093F100319661507109E9
:103A50002F5F3F4FE6CF80915402882341F085309D
:103A600041F08091E80083FFBDCF81E0089582E0BE
:103A7000089583E00895982F973028F08F708093F1
:103A8000E90081E008959093E900242F762F50E01B
:103A9000981731F07091EC002091ED005091F000FA
:103AA00021FD02C09F5FE8CF3091EB003E7F309355
:103AB000EB003091ED003D7F3093ED003091EB0055
:103AC00031603093EB007093EC002093ED00509345
:103AD000F0002091EE0027FDE5CF80E00895809171
:103AE000550287FF13C08091E80082FF06C08091D5
:103AF000E8008B778093E80004C080915402811124
:103B0000F2CF0895809154028823D9F38091E80080
:103B100080FFF8CF8091E8008E77ECCF2091E40011
:103B20003091E50095E6A9012091EC00822F81708B
:103B300020FF06C08091E80080FF06C080E0089565
:103B40002091E80022FD1AC080915402882389F058
:103B5000853089F08091EB0085FD0FC02091E40055
:103B60003091E50042175307F9F29150E1F684E0F5
:103B7000089582E0089583E0089581E008950E9409
:103B80002D1E0E94351EE0EEF0E080818160808372
:103B9000E8EDF0E080818F77808319BCA7EDB0E07D
:103BA0008C918E7F8C9380818F7E808310925302C4
:103BB00008950F931F93CF93DF930E942D1E0E94B1
:103BC000351EC8EDD0E088818F7788838881806832
:103BD000888388818F7D888319BC1092540210924B
:103BE0005002109252021092510200EE10E0F801C1
:103BF00080818B7F808388818160888342E060E060
:103C000080E00E943B1DE1EEF0E080818E7F8083AA
:103C1000E2EEF0E080818160808380818860808333
:103C2000F80180818E7F8083888180618883DF9125
:103C3000CF911F910F910895E8EDF0E080818F7E84
:103C40008083E7EDF0E080818160808384E082BF43
:103C500081E0809353020C94D91DE8EDF0E080815F
:103C60008E7F80831092E20008951092DA00109205
:103C7000E10008951F920F920FB60F9211242F9317
:103C80003F934F935F936F937F938F939F93AF93E4
:103C9000BF93EF93FF938091E10082FF0BC080916F
:103CA000E20082FF07C08091E1008B7F8093E100FA
:103CB0000E94A4208091DA0080FF19C08091D80072
:103CC00080FF15C08091DA008E7F8093DA008091AA
:103CD000D90080FF96C080E189BD82E189BD09B429
:103CE00000FEFDCF81E0809354020E941D1A809156
:103CF000E10080FF19C08091E20080FF15C0809133
:103D0000E2008E7F8093E2008091E20080618093E8
:103D1000E2008091D80080628093D80019BC85E0D1
:103D2000809354020E942F1A8091E10084FF2BC0DF
:103D30008091E20084FF27C080E189BD82E189BDD6
:103D400089B5982F917080FFFBCF8091D8008F7D2F
:103D50008093D8008091E1008F7E8093E100809174
:103D6000E2008F7E8093E2008091E2008160809388
:103D7000E20080915002882309F449C084E08093D6
:103D800054020E94301A8091E10083FF29C0809183
:103D9000E20083FF25C08091E100877F8093E100EE
:103DA00082E080935402109250028091E1008E7F55
:103DB0008093E1008091E2008E7F8093E200809109
:103DC000E20080618093E20042E060E080E00E94D7
:103DD0003B1D8091F00088608093F0000E942E1AB5
:103DE000FF91EF91BF91AF919F918F917F916F91D3
:103DF0005F914F913F912F910F900FBE0F901F90A9
:103E0000189519BC109254020E942B1A70CF809101
:103E1000E30087FD93E090935402B3CF1F920F927B
:103E20000FB60F9211242F933F934F935F936F938D
:103E30007F938F939F93AF93BF93CF93DF93EF9332
:103E4000FF93D091E900DF708091EC00C82FC17022
:103E500080FDC0E81092E9008091F000877F809398
:103E6000F00078940E94521F1092E9008091F000B7
:103E700088608093F000CD2BCF70C093E900FF9154
:103E8000EF91DF91CF91BF91AF919F918F917F91F2
:103E90006F915F914F913F912F910F900FBE0F90B7
:103EA0001F9018951F93CF93DF93CDB7DEB7AA97D6
:103EB0000FB6F894DEBF0FBECDBF85E592E020912E
:103EC000F100FC012193CF01F2E08D359F07B9F796
:103ED0000E94461A8091E80083FF1EC1809155021E
:103EE000909156029A3008F017C1E92FF0E0EE5B8E
:103EF000FE4D0C94C020803899F0823809F00CC136
:103F0000809159028F70873008F006C18093E900D4
:103F10008091EB0085FB882780F91092E90006C0AC
:103F20008091510290915202911182609091E8002B
:103F3000977F9093E8008093F1001092F1008091B8
:103F4000E8008E77E5C0882309F4D3C0823009F0F9
:103F5000E3C0809157028111D6C0809159028F70C1
:103F60002FEF280F263008F0D7C08093E90020916A
:103F7000EB0020FFC8C0933031F48091EB008062E9
:103F80008093EB00C0C09091EB0090619093EB00A8
:103F900021E030E001C0220F8A95EAF72093EA0081
:103FA0001092EA008091EB008860EACF8111B4C0E2
:103FB000109157021F778091E3008078812B8093C6
:103FC000E3008091E800877F8093E8000E946F1DE6
:103FD0008091E80080FFFCCF8091E30080688093AF
:103FE000E30082E0111183E08093540295C0805871
:103FF000823008F091C080915702909158028C3D18
:1040000023E09207A1F583E08A838AE289834FB790
:10401000F894DE01139620E03EE051E2E32FF0E059
:1040200050935700E49120FF03C0E295EF703F5F8B
:10403000EF708E2F90E0EA30C0F0C7968D939D937D
:104040002F5F243159F74FBF8091E800877F80931D
:10405000E8006AE270E0CE0101960E947E1C809129
:10406000E8008B778093E80057C0C096E7CF609157
:10407000590270915A02AE014F5F5F4F0E946B1B55
:10408000BC01892B09F448C09091E800977F909378
:10409000E80089819A810E94DC1CE1CF8038E1F53B
:1040A0008091E800877F8093E800809150028093A0
:1040B000F10045CF811130C090915702923060F5E8
:1040C0008091E800877F8093E800909350020E94DF
:1040D0006F1D80915002882311F084E005C080910B
:1040E000E30087FDFACF81E0809354020E94321AE8
:1040F00013C080915702813079F481E0933009F048
:1041000080E0809352021092E9008091E800877F5E
:104110008093E8000E946F1D8091E80083FF0AC031
:104120008091E800877F8093E8008091EB008062B7
:104130008093EB00AA960FB6F894DEBF0FBECDBFFA
:10414000DF91CF911F9108950895CF9380915402EC
:104150008823A1F0C091E900CF709091EC00892FE5
:10416000817090FD80E8C82B1092E9008091E800F2
:1041700083FD0E94521FCF70C093E900CF91089534
:10418000EE0FFF1F0590F491E02D09946927962703
:1041900069277827872778270895F999FECF92BD58
:1041A00081BDF89A992780B50895A8E1B0E042E072
:1041B00050E00C940121262FF999FECF92BD81BDCC
:1041C000F89A019700B4021639F01FBA20BD0FB655
:1041D000F894FA9AF99A0FBE08950396272F0E9431
:1041E000DC200E94DB20252F0E94DC20242F0C9451
:1041F000DC200196272F0E94DC200C94DB20DC01C0
:10420000CB01FC01F999FECF06C0F2BDE1BDF89AE1
:10421000319600B40D9241505040B8F70895F8948B
:10422000FFCFBD07CA07F107FD07080813081608E6
:10423000160816085F08620819081D0825083208C4
:104240003F084208450852089B0E9B0EF30EF30EE2
:10425000450FC80EC80EC80E610FED0FFC0FFC0F06
:104260005810C80EC80E6110D210D210DB10DB102F
:10427000DD10DB10DB10DB10D210D210E210DB10EF
:10428000DB10E2107B1FA31F8C20A31F8C20D61FE6
:08429000F71F8C204E205A207C
:10429800F9017519B3197819AF19AB1901E200E9D9
:1042A80000EA00B500B600B700CD008301CC008A53
:1042B80001920194012102230224022502260227E9
:1042C800022A02B300B4006F007000818283663650
:1042D800F767F0F130C6F5F4F637E200E900EA00D6
:1042E800B500B600B700CD008301CC008A01920169
:1042F80094012102230224022502260227022A020F
:10430800B300B4006F00700081828340226D8E0379
:0A431800FF022103A402BD02DD0232
:00000001FF
