:100000000C94E6010C942D020C942D020C942D02FC
:100010000C942D020C942D020C942D020C942D02A4
:100020000C942D020C942D020C94391E0C940D1F6F
:100030000C94AD180C942D020C942D020C942D02EE
:100040000C942D020C942D020C942D020C942D0274
:100050000C942D020C9404190C942D020C942D0276
:100060000C942D020C942D020C942D020C942D0254
:100070000C942D020C942D020C942D020C942D0244
:100080000C942D020C942D020C942D020C942D0234
:100090000C942D020C942D020C942D020C942D0224
:1000A0000C942D020C942D020C942D0200002900BA
:1000B0001E001F002000210022000000000014008C
:1000C0001A0008001500170000002B00040016009D
:1000D000070009000A00E10000001D001B000600E7
:1000E000190005000000E000000000000151E200DE
:1000F0002C00000035003A003B003C003D003E0073
:100100000000000001005200010001000100000099
:100110000100500051004F000100010001000000EB
:1001200001000100010001001000000001000000BA
:1001300000000100010001000000010001000100B9
:1001400001000100010000000000010001000100A9
:100150000100010000000100010001000100010098
:100160000100010000000100010001000100010088
:10017000000001000000000001000100010000007B
:100180000100010001000100010001000000000069
:100190000100010001000100010000000100010058
:1001A0000100010001000100010000000100010048
:1001B000010001000100000001000000000001003A
:1001C0000100010000000000000000002A2B2800B0
:1001D00000000000000000000000000000000029F6
:1001E000000000002C1E3420212224342627252E36
:1001F000362D3738271E1F2021222324252633336E
:10020000362E37381F0405060708090A0B0C0D0E99
:100210000F101112131415161718191A1B1C1D2F65
:100220003130232D350405060708090A0B0C0D0E85
:100230000F101112131415161718191A1B1C1D2F45
:100240003130354C000000000000000000000000CC
:1002500000000000000000007E0F00D4FFFFFFC779
:10026000000000780403300000000E034700650022
:100270006F007000610064000000100367006500FB
:100280006F00630069006E0065000000040309044C
:1002900009025B00030100A0FA0904000001030148
:1002A0000100092111010001224000070581030816
:1002B000000A0904010002030000000921110100E5
:1002C0000122220007058203200001070503032005
:1002D00000010904020001030000000921110100CE
:1002E00001226D000705840320000A12011001009D
:1002F000000008232007000100010203010660FF3F
:100300000961A1010962150026FF00952075088189
:10031000020963150026FF00952075089102C005AB
:10032000010980A101850319012AB700150126B72B
:1003300000950175108100C0050C0901A10185041B
:1003400019012AA002150126A0029501751081004D
:10035000C005010906A1018505050719E029E71572
:100360000025019508750181020507190029EF157F
:1003700000250195F07501810205081901290595EF
:100380000575019102950175039101C005010906EA
:10039000A101050719E029E7150025019508750158
:1003A00081029501750881010507190029FF1500D3
:1003B00026FF009506750881000508190129059595
:1003C0000575019102950175039101C011241FBEAD
:1003D000CFEFDAE0DEBFCDBF04B603FE27C08091C9
:1003E0005D0290915E02A0915F02B0916002873041
:1003F000904BA740B04BD1F410925D0210925E0278
:1004000010925F021092600214BE84B7877F84BF8F
:100410000FB6F894A8958091600088618093600081
:10042000109260000FBEE0E0F8E3099511E0A0E053
:10043000B1E0E6E9F2E402C005900D92AA38B107F6
:10044000D9F722E0AAE8B1E001C01D92AD35B207AC
:10045000E1F70E94FE1A0C940E210C94000081E03A
:10046000089581E008950C942F0208950C943502AC
:100470001F93CF93DF9300D000D00F92CDB7DEB79C
:1004800049835A836B8330919D0189819A8131110F
:100490001DC06623B9F02223A9F00E94AF15182FC2
:1004A000682F89819A810E945B1569817A81812FE9
:1004B0000F900F900F900F900F90DF91CF911F91A1
:1004C0000C9437090E948715182FEFCF0E94AF15A3
:1004D00069817A81EDCFFC01262F408151816281B3
:1004E000738184810C943802CF93DF93EC0160E038
:1004F0000E946B02BE01DF91CF910C943602FF92F5
:100500000F931F93CF93DF93E82FF0E0EC53FE4F50
:10051000F490C82FC695C695C695D0E0FE01EC5A5A
:10052000FD4F0491877010E0082E02C015950795C5
:100530000A94E2F701701127CC5BDD4FFE01C491F4
:10054000D0E002C0D595C7958A95E2F7C170DD2746
:100550000115110519F081EE0E94690D209719F01F
:1005600086EE0E94690D8F2D0E94420ECD2B19F050
:1005700086EE0E94F30D012B41F081EEDF91CF91C9
:100580001F910F91FF900C94F30DDF91CF911F916C
:100590000F91FF900895EF92FF920F931F93CF93C7
:1005A000DF93EC01162F0AE08881882309F454C0F8
:1005B000813009F04EC08981813099F47E0122E0BA
:1005C000E20EF11C8A810E94420EE7012196812FE2
:1005D000815050F3EFE9FFE03197F1F700C00000E0
:1005E000F7CF823041F47E0182E0E80EF11C8A816F
:1005F0000E94690DEACF833041F47E01E2E0EE0E05
:10060000F11C8A810E94F30DE0CF843011F0219615
:10061000DDCF2A81229690E080E0AE014F5F5F4FF0
:100620002053330B2A30310548F0019778F2EFE977
:10063000FFE03197F1F700C00000F7CF089FB0014D
:10064000099F700D1124C901860F971F2981EA01A6
:10065000E4CF0E947F02BACFDF91CF911F910F911B
:10066000FF90EF90089560E00C94CB028F929F92E0
:10067000AF92BF92CF92DF92EF92FF920F931F93B0
:100680006B017C0181E090E0A0E0B0E04C015D01F5
:1006900004C0880C991CAA1CBB1C4A95D2F7B50152
:1006A000A4014C015D0104C0880C991CAA1CBB1C50
:1006B0002A95D2F7482959296A297B2904C0880F2D
:1006C000991FAA1FBB1F0A95D2F78A019B010C2113
:1006D0001D212E213F21041715072607370789F40E
:1006E0008C299D29AE29BF29BC01CD011F910F91F5
:1006F000FF90EF90DF90CF90BF90AF909F908F9042
:10070000089580959095A095B0958C219D21AE215E
:10071000BF21EACF0F93382F262F6091EF01709100
:10072000F0018091F1019091F201042F432F0E947A
:1007300036030F910C9499140E943B190E94F916EC
:10074000811102C00E9496170C94FC050C94FF05C1
:1007500008950C94A80381E008950C94AB03CF9303
:10076000C82F0E94A9038C2FCF910C94AD0308953C
:100770000E94C2100E94B7032FEF84E39CE0215037
:1007800080409040E1F700C000000C9428190F93BE
:100790001F93CF93DF93EC0161E00E946B028C0109
:1007A000BE010E946E07882359F1BE01C8010E9454
:1007B0003302882329F1BE01C8010E948D0A8823D3
:1007C000F9F0BE01C8010E94DF0A8823C9F0BE010A
:1007D000C8010E94020C882399F08A81882339F08D
:1007E00001158CE5180751F00E3D1C4579F0CE013E
:1007F000DF91CF911F910F910C9431020E94B803A9
:1008000080E0DF91CF911F910F9108950E9496177C
:10081000F7CF90E080E008950895FC01EE0FFF1FF0
:10082000EC59FD4F859194910895CF93DF930E94E9
:1008300037090E942105EC01811520E5920708F097
:1008400041C0811530E4930708F0B4C0803E9105A3
:1008500018F5803C910508F09DC0883A910570F428
:10086000853A910508F08EC081309105F9F0009726
:10087000E9F00497D8F4D0E0C0E018C08F3B9105B0
:10088000D0F7C85AD0E0CC0FDD1FC35FDE4F099010
:10089000D881C02DD4640AC08115904258F4C11586
:1008A00081E0D80718F4C83ED10528F7CE01DF91C2
:1008B000CF910895C11590E3D90708F071C0CE011A
:1008C0009F706AC0811525E5920758F5811534E5BA
:1008D000930708F09EC0811542E5940750F4C115B6
:1008E00081E5D80708F469C0DC2FCC27C16FD06A36
:1008F000DDCF982F969596959E0123703327C115CD
:10090000D34508F077C0C1E0D0E002C0CC0FDD1FB6
:100910002A95E2F720E2929FC0011124C82BD92B1F
:1009200067C0C11589E5D807A8F4C11598E5D907AE
:1009300008F074C0C11526E5D20708F09CCF8C2FB3
:100940000E94B805C82FD0E0DC2FCC27CC27DF7160
:10095000D062ACCFC1153AE5D30708F464C0CE012C
:1009600090568115904208F086CF8D2F8F710E948E
:10097000B80590E0982F882788279F719C012C2B21
:10098000E901E6CFC55AD0E0C55CDE4FC881D0E0B2
:10099000D0648CCF805C91090E940D04EC0186CF5D
:1009A000CE019927D3FF03C0EC01D86C7FCFEC01B7
:1009B000D06C7CCFDF70D06A79CFCE01E4E0969521
:1009C0008795EA95E1F783702C2F2695269523705D
:1009D00090E2299F90011124382B8C2F8370C1E065
:1009E000D0E002C0CC0FDD1F8A95E2F7C22BD32BDB
:1009F000DC685CCFC1E0D0E002C0CC0FDD1F2A95DF
:100A0000E2F730E2939FC0011124C82BD92BDA689A
:100A10004DCFD82FCC27C46FD06A48CFDC2FCC273E
:100A2000C06FD06A43CF8C2F8F700E94B80534E01E
:100A3000D695C7953A95E1F7CF709C2FEC01D06918
:100A400035CF82389105B1F1B0F48133910509F4C5
:100A500075C048F48932910509F469C08A3291055C
:100A600009F473C008958533910509F459C0893399
:100A7000910501F10895833E9105A9F138F4803E76
:100A80009105F9F0823E910549F10895863E910560
:100A9000A9F1873E9105C9F1843E910519F5209190
:100AA0004F0221FF1FC080914E0284FD14C087EECB
:100AB00090E0089520914E022370A1F080EE90E026
:100AC000089520914E0220FD47C030914F0230FF23
:100AD00009C024FF44C090E080E004C020914E0291
:100AE00022FDF7CF089520914E0222FD3BC03091A8
:100AF0004F0230FDE3CF24FFF5CFEDCF20914E0222
:100B000023FFF0CF24FDE7CFD2CF20914E0223FD6B
:100B10002CC030914F0231FFEECF84EE90E008956B
:100B200020914E0225FFDECF89E290E008952091CA
:100B30004E0225FFD7CF85E390E0089520914E0225
:100B400026FFD0CF8AE290E0089520914E0226FF42
:100B5000C9CF81E390E0089589E390E0089583EEA2
:100B600090E0089582EE90E0089586EE90E008957A
:100B700090914E0292FF06C0282F28712830F9F478
:100B8000877F846093FF06C0282F28712831F1F4F5
:100B9000877E846120914F0220FF06C0382F387174
:100BA0003830D9F4877F816021FF06C0282F287153
:100BB0002831D1F4877E816194FD877E0895282FA6
:100BC00024712430F9F68B7F8860DCCF282F2471C4
:100BD000243101F78B7E8861DDCF382F31713130C0
:100BE00019F78E7F8860E0CF282F2171213121F7FE
:100BF0008E7E8861E1CF08950C94FB0508950C94D6
:100C0000FE05E82FF0E0EB5BFD4F8081089508952D
:100C100080EA8A95F1F70895CF93DF93A5E4B1E0D8
:100C20004AE451E0C1E0D0E08D91E82FE295EF7009
:100C3000F0E061A18F709E0101C0220F8A95EAF752
:100C4000922F9095962391A382A1822B82A34A177B
:100C50005B0751F7AEE3B1E061E070E08D91E82F02
:100C6000E295EF70F0E041A18F709B0101C0220F6F
:100C70008A95EAF7922F9095942391A382A1822BD3
:100C800082A381E0A534B80749F710924002109280
:100C900045021092410210924602109242021092B6
:100CA000470210924302109248021092440210929E
:100CB000490285E00E94E006DF91CF910C949C03ED
:100CC0008F929F92AF92BF92CF92DF92EF92FF925C
:100CD0000F931F93CF93DF9385E4A82E81E0B82E66
:100CE00000E412E0912CCC24C394D12CF501819125
:100CF0005F01C82FC295CF70D0E099A18F707601A7
:100D000001C0EE0C8A95EAF7892F8E2989A38AA162
:100D10008E2C809488218AA30E940806EEE3F1E0DD
:100D200050E040E020E03191A32FA295AF70B0E0F9
:100D300090968C9190E03F7002C0959587953A957A
:100D4000E2F780FD39C08C2D042E01C0880F0A9473
:100D5000EAF7282B4F5F5F4F4730510521F789A1F4
:100D6000882289A28AA1E82AEAA2F80180812817AC
:100D700029F1208381E0982A0F5F1F4FFAE4AF1614
:100D8000F1E0BF0609F0B2CF292D45E065E472E03D
:100D900080E492E00E94E1060E94A603892DDF9183
:100DA000CF911F910F91FF90EF90DF90CF90BF9068
:100DB000AF909F908F90089580E0CBCF80E0DBCF05
:100DC0000895FF920F931F93CF93DF93F82E092F6F
:100DD000162FD72FC42F222349F081E080938C0156
:100DE0000E94DD1890938B0180938A0180918C0181
:100DF0008823A1F080918A0190918B010E94F518BF
:100E0000069760F0EF2DF02FA12FBD2FCE0FDF2F13
:100E1000D11DEC17FD0741F410928C01DF91CF91A9
:100E20001F910F91FF90089581918D93F2CF82E2EF
:100E300090E00E94CC20803289F483E290E00E940E
:100E4000CC20883059F484E290E00E94CC2091E0DC
:100E5000803309F090E0892F8170089580E0FCCF05
:100E6000CF93C82F6FEF811160E282E290E00E9481
:100E7000DA206FEFC11168E083E290E00E94DA208F
:100E80006FEFC11160E384E290E0CF910C94DA201F
:100E900080E00E9430070C94F316089585E290E0FC
:100EA0000E94CC20682F70E090E080E0089585E2F9
:100EB00090E00C94DA200E944D070E9417078111E0
:100EC0000CC060E070E0CB010E9457070E94AF08A1
:100ED0000E949B0981E00C9430070895CF93FB0199
:100EE000C281CC2309F19C0122513F4520313105BB
:100EF00020F582510E94AB09C0E08C2FCF9108955C
:100F000081E00E94BF1443E062E081E00E948A0316
:100F1000F3CF81E00E94E01443E062E081E00E94B0
:100F20008A03EBCF82E0F6CF8031FFE59F0789F39C
:100F300081319F45B9F3C1E0E0CF8031EFE59E07F5
:100F4000F9F281319F45C9F682E0DBCF2FEFFC013A
:100F500020830895EF92FF920F931F93CF93DF9317
:100F6000EC01062FE881E150E33108F05EC0F0E0CB
:100F7000E05FFE4D0C94BF20198289E08A83602FC8
:100F8000CE01DF91CF911F910F91FF90EF900C94C4
:100F9000F2198981823069F0833071F08130D9F49F
:100FA0000E94E9180E94C5206A837B838C839D83FD
:100FB000E6CF0E944E07F6CF7E0122E0E20EF11C42
:100FC00010E0812F0E940106F70181937F011F5FCE
:100FD0001530B9F7D4CF602FCE010E94A607CFCF2E
:100FE00089818230C1F76A817B818C819D810E94D9
:100FF000C5200E945707C3CF4B816A8189810E9417
:1010000081089827892798279D838C83B8CF2C81C6
:101010003D813227232732274B816A8189810E94B3
:101020009A08ADCF0E94AF08AACF8FEF8883A7CFD1
:101030000E9444098983A3CF0E94460998278927E3
:1010400098279A8389839BCF6B8170E089819A81ED
:10105000AE014C5F5F4F9827892798270E94490966
:101060008ECF6B8170E089819A81AE014C5F5F4FBA
:101070009827892798270E94700981CF0E949B0991
:101080007ECF0E946F08D6CF6B8170E089819A81F4
:10109000AE014C5F5F4F9827892798270E94E70889
:1010A0006ECF6B8170E089819A81AE014C5F5F4F9A
:1010B0009827892798270E940D0961CF0E94480729
:1010C0005ECF0E94F219FFEF21EE84E0F150204044
:1010D0008040E1F700C000000E94281950CF84E052
:1010E000089550E0440F551F9EE0699F400D511D2B
:1010F000112496E4899F400D511D1124CA01869642
:1011000008950F931F93CF93DF930E9471088C0172
:101110000E94CC20C82FD0E0DC2FCC27C80101963C
:101120000E94CC209E01282BC901DF91CF911F91F5
:101130000F9108950F931F93CF93DF93122F032FD7
:101140000E947108EC01602F0E94DA20612FCE010D
:101150000196DF91CF911F910F910C94DA20AF92FD
:10116000BF92CF92DF92EF92FF921F93CF93DF93C4
:101170008CEAC82E80E0D82ED0E07601C0E014C002
:10118000F50125913491412F6C2F8D2F0E949A08E3
:1011900082E0A80EB11C1F5F173091F78EE0E80EB9
:1011A000F11CCF5FC53019F0570110E0E9CFDF5FC8
:1011B00086E4C80ED11CD43001F7DF91CF911F9186
:1011C000FF90EF90DF90CF90BF90AF900895EF9297
:1011D000FF920F931F93CF93DF93EC018A017C0161
:1011E000E60EF71ECE018696CE15DF0539F4DF91A7
:1011F000CF911F910F91FF90EF900895C83121E09A
:10120000D20740F40E94CC20F80180830F5F1F4F6B
:101210002196E8CFF8011082F9CFCF92DF92EF92BA
:10122000FF920F931F93CF93DF937C016A018C0190
:10123000060F171FEC01CE018696C017D10749F49F
:10124000DF91CF911F910F91FF90EF90DF90CF90A2
:101250000895C83121E0D20740F4FE01EE19FF09DC
:10126000EC0DFD1D60810E94DA202196E4CF462F0F
:10127000843038F4753028F4673018F4672F0C94F4
:10128000810890E080E0089580E1089582EC92E08A
:101290000895EF92FF920F931F93CF93DF93EC018A
:1012A0008A017C01E60EF71ECE01825C9E4FCE15B0
:1012B000DF0539F4DF91CF911F910F91FF90EF90EF
:1012C0000895C23C22E0D20740F40E94CC20F801ED
:1012D00080830F5F1F4F2196E7CFF8011082F9CF6F
:1012E000CF92DF92EF92FF920F931F93CF93DF93F2
:1012F0007C016A018C01060F171FEC01CE01825C94
:101300009E4FC017D10749F4DF91CF911F910F91E4
:10131000FF90EF90DF90CF900895C23C22E0D2077B
:1013200040F4FE01EE19FF09EC0DFD1D60810E94E5
:10133000DA202196E3CFCF93DF93CEE3D1E060E0D4
:10134000CE010E94DA202196C11584E0D807B9F7B2
:10135000DF91CF910895DF92EF92FF920F931F9349
:10136000CF93DF9300D000D0CDB7DEB7F82E8FE05B
:101370008F1540F08FEF93E00E94CC200EE311E038
:101380008823C1F00F900F900F900F90DF91CF91B5
:101390001F910F91FF90EF90DF900895011584E069
:1013A000180781F3C8010E94CC20811101C0FA9472
:1013B0000F5F1F4FF110F2CF19821A821B821C821D
:1013C000DD24D39478018FEFE81AF80AC8010E944F
:1013D000CC2089831A828823A9F29FEF980F93303B
:1013E00078F48A83D9820E5F1F4FC7010E94CC20F8
:1013F0008B83882339F2CE0101960E943303E2CF1A
:101400008701F9CFAF92BF92CF92DF92EF92FF9216
:101410000F931F93CF93DF937C015B01C42FD22FD7
:10142000FC0182818823F9F040938F010E94DD182E
:1014300090938E0180938D0180E28C0F883008F0AC
:1014400061C0C77081E001C0880FCA95EAF7DF91DB
:10145000CF911F910F91FF90EF90DF90CF90BF90B1
:10146000AF900C94550E10918F01141340C08091D1
:101470008D0190918E010E94F5186C01B701C50194
:101480000E943813C816D90690F5C0E2CD0F1D177B
:10149000B9F080E2810F883040F4177081E001C01C
:1014A000880F1A95EAF70E945C0EC83048F481E074
:1014B0009D2F977001C0880F9A95EAF70E94550EEC
:1014C000802F0E94420EC830E8F4D77081E001C03E
:1014D000880FDA95EAF7DF91CF911F910F91FF9076
:1014E000EF90DF90CF90BF90AF900C945C0E80E2B5
:1014F0008C0F883038F4C77081E001C0880FCA951E
:10150000EAF7E9CFDF91CF911F910F91FF90EF9014
:10151000DF90CF90BF90AF9008950F939C01CB01C7
:10152000233F4CE5340759F1A8F4283DFCE53F077B
:1015300001F1293D4CE53407D1F1273D3C4591F4BB
:1015400006E221EE41EE67ED7CE50E94020A80E0B2
:101550000F910895253FFCE53F07E9F0B0F0263FE5
:101560003C45F9F0FC018281882339F110928F010A
:10157000EFCF07E225EE45EE68ED7CE5E6CF06E22B
:1015800021EE40EE63EF7CE5E0CF07E225EE44EE8E
:1015900064EF7CE5DACF06E221EE42EE65EF7CE512
:1015A000D4CF07E225EE46EE66EF7CE5CECF08E22B
:1015B00021E045EE69ED7CE5C8CF81E0C9CFCF934E
:1015C000DF93EC01FB018281882309F419C1C23049
:1015D000FCE5DF07C0F1C6319CE5D90730F09E017C
:1015E0002A5F3C452930310570F50E940C17909315
:1015F0004F0280934E02C031ECE5DE0709F4CFC004
:1016000008F05BC0C8308CE5D80709F4B6C088F58F
:10161000C430ECE5DE0709F4A8C0C0F4C2308CE5A4
:10162000D80709F49CC080914E028260C330DC452B
:1016300009F498C080914E0290914F020E941A17AF
:101640000E94C21080E0DF91CF91089580914E02F8
:101650008061C630ECE5DE0709F484C080914E025B
:101660008860C730DC4508F47DC080914E028062FE
:1016700079C0CC308CE5D80709F489C070F480912A
:101680004E028C60CA30ECE5DE0709F46BC008F44A
:1016900078C080914E028E7F65C0CE308CE5D80731
:1016A00009F479C080914E028B7FCF30DC4508F47D
:1016B00059C080914E028F7E55C0CB3FECE5DE07CE
:1016C00009F457C030F5C3318CE5D80709F46FC071
:1016D00078F4C131ECE5DE0709F465C0C231DC45C0
:1016E00009F0A8CF0E94C21080914E028F773AC0B5
:1016F000C5318CE5D80709F462C008F476C0809142
:101700004F028160CA3FDC4509F094CF80934F02BD
:1017100091CFCF3FFCE5DF0709F44DC088F48091FD
:101720004F028D7FCD3F9CE5D90781F380914F0219
:101730008E7FCE3FDC4550F380914F028360E6CF31
:10174000C130FDE5DF0709F459C008F444C080E06A
:10175000C230DD4509F06ECF0E9498176BCF8091A3
:101760004E02816080934E0265CF80914E0284606C
:10177000F9CF80914F028260C9CF80914E02806480
:10178000F1CF0E94C21080914E028068EBCF809111
:101790004E028D7FE7CF80914E02877FE3CF80910D
:1017A0004E028F7DDFCF80914E028F7BDBCF809109
:1017B0004E02837FD7CF80914F028C7FA7CF80913D
:1017C0004E0282FB992790F921E0922790FB82F943
:1017D00090FB83F9C7CF80914F02982F909591701D
:1017E0008E7F892B90FB81F991CF0E94C21090913E
:1017F0004E02892F97FB87F98058B4CF81E0ACCF98
:1018000081E021CFCF93DF93EB0186319C4511F529
:101810000E9444169A81992399F08A7A91E009F4FA
:1018200090E090939001811109C089E20E941F16F7
:101830000E94901680E0DF91CF91089585E3F6CF66
:1018400080919001811104C089E20E942616F0CF98
:1018500085E3FBCF81E0EFCF9093960180939501D4
:101860000895E0919501F0919601309721F0019053
:10187000F081E02D099480E00895E0919501F091C8
:101880009601309799F020910C01222359F0209174
:101890004E0227FF07C0DC012C9111962C93119763
:1018A00025E02C930280F381E02D09940895209186
:1018B0009301309194012817390771F090939401A6
:1018C00080939301E0919501F0919601309721F07A
:1018D0000680F781E02D09940895209191013091BF
:1018E00092012817390771F090939201809391012A
:1018F000E0919501F0919601309721F00084F185F7
:10190000E02D0994089585B7806885BF85B7806804
:1019100085BF0895089508950C948A0C08950C9439
:101920008E0C0E94830C0E948B0C0C948C0C81E01A
:1019300008950C94970C0E94D4180E940C060E94E3
:101940005B070E9452190C948F0CBF92CF92DF92CA
:10195000EF92FF920F931F93CF93DF93CDB7DEB734
:101960002A970FB6F894DEBF0FBECDBF0E94600667
:101970000E94990C882309F45CC088E9C82E81E094
:10198000D82E10E000E0B02E802F0E940106E82E35
:10199000F601F1906F01F81609F445C080911C0220
:1019A00081FD0E9407069F2D9E2580E0FF24F39471
:1019B000292F2F21A1F18E83BF82EF2081E009F42E
:1019C00080E088870E94DD188160782F9A87898758
:1019D0004E815F8168858A850E943A0DF801E8563C
:1019E000FE4F8081F826F0820E94310C9091970181
:1019F000891781F10E94310C809397012A960FB6C6
:101A0000F894DEBF0FBECDBFDF91CF911F910F9134
:101A1000FF90EF90DF90CF90BF900C94AF038F5F5B
:101A2000FF0C873029F60F5F1F4F0530110509F0B5
:101A3000AACF8FEF89838A831B820E94DD18816081
:101A4000782F9D838C8349815A816B818D810E947F
:101A50003A0DCACF2A960FB6F894DEBF0FBECDBF9F
:101A6000DF91CF911F910F91FF90EF90DF90CF907A
:101A7000BF900895CF93DF93CDB7DEB72B970FB606
:101A8000F894DEBF0FBECDBF4F83588769877A8732
:101A90008B871E821D8285E0FE013796DE0111963E
:101AA00001900D928A95E1F749815A816B817C8181
:101AB0008D819E812B960FB6F894DEBF0FBECDBFF1
:101AC000DF91CF910C943B13FC01808191810C94A8
:101AD000F115CF93C82F882309F483C08238C1F44D
:101AE0000E94310C81FD7DC089E30E941F160E9477
:101AF00090162FEF81EE94E0215080409040E1F766
:101B000000C0000089E30E942616CF910C94901625
:101B10008338A1F40E94310C80FD63C083E50E94EC
:101B20001F160E9490162FEF81EE94E02150804006
:101B30009040E1F700C0000083E5E5CF8438A1F4D0
:101B40000E94310C82FD4DC087E40E941F160E9446
:101B500090162FEF81EE94E0215080409040E1F705
:101B600000C0000087E4CFCF8CEF8C0F813A90F457
:101B70006C2F80910001909101010E94B117882380
:101B800029F08C2F0E9426160E9490168C2F0E94FE
:101B90001F16BBCF80E28C0F883048F4C77081E0FD
:101BA00001C0880FCA95EAF70E944716AECFEBE551
:101BB000EC0FE33040F4F0E0E858FE4F808190E015
:101BC000CF910C94570CC85AC73158F4EC2FF0E061
:101BD000EE0FFF1FE65BFE4F80819181CF910C9449
:101BE0006D0CCF910895882309F44BC0823871F4AD
:101BF0000E94310C81FF45C089E30E941F160E949C
:101C0000901689E30E9426160C949016833859F496
:101C10000E94310C80FF35C083E50E941F160E9490
:101C2000901683E5EFCF843859F40E94310C82FF7F
:101C300028C087E40E941F160E94901687E4E2CF16
:101C40009CEF980F913AF0F290E2980F983050F490
:101C5000877091E001C0990F8A95EAF7892F0E9459
:101C60004D16D2CF9BE5980F933020F490E080E0A2
:101C70000C94570C885A873120F490E080E00C9443
:101C80006D0C0895CF93C82F0E94690DC93349F494
:101C90002FEF87EE93E0215080409040E1F700C0A5
:101CA00000008C2FCF910C94F30D882321F00E941B
:101CB00047160C9490160895882321F00E944D1623
:101CC0000C9490160895BF92CF92DF92EF92FF92FC
:101CD0000F931F93CF93DF936C01D62FC72FFC0177
:101CE000058102950F70128111110E9464160E94E5
:101CF0003D16E82E882391F01123D1F08C2F807FA0
:101D0000803421F080E28D0F883090F082E00E94D4
:101D1000DB160E943D1691E0E82EE926BC2EB29417
:101D20009FE0B922EB2DF0E0ED5DFE4D0C94BF205D
:101D3000E12CF4CF0C2F0F70C07F11F00295007FC3
:101D40001123A9F0002359F080E28D0F883010F0A4
:101D5000D11109C0802F0E9447160E9490168D2F26
:101D60000E94690D14C0802F0E945716F6CF8D2F48
:101D70000E94F30D002359F080E28D0F883010F09F
:101D8000D1112CC0802F0E944D160E9490162B2D31
:101D90002850330B2430310520F40E94310C0E946E
:101DA000AF03EE2009F493C10E94391680FD8FC164
:101DB000F60112820E9433160E94BF14C6010E94CF
:101DC00088100E943316DF91CF911F910F91FF90E1
:101DD000EF90DF90CF90BF900C94E014802F0E9482
:101DE0005D16D3CFFC2FFF70FF2EC07FC03219F0DD
:101DF000F29480EFF822DD2369F0D13049F111230C
:101E000091F1002351F1F601858180FFA8CF8F70F9
:101E1000858323C0112381F0011106C00E9477162B
:101E20008F290E94550EB3CF0130C1F70E9477165B
:101E30008F290E947D16ABCF011106C00E94861625
:101E40008F2D0E945C0EA3CF013009F4A0CFF6CFF6
:101E5000112329F0063008F09ACF8F2DE2CF0530FC
:101E600008F095CFEDCF002359F3D93349F4FFEFB4
:101E700027EE33E0F15020403040E1F700C0000091
:101E80008D2F0E94F30D83CF8C2F869586958370BE
:101E900069F0813009F07BCF8D2F9C2F9370111149
:101EA00002C090E080E00E946D0C71CF8D2F9C2FBE
:101EB0009370111102C090E080E00E94570C67CF30
:101EC0008C2F837009F041C0111161CF4D2F4295C5
:101ED00046954770440F440F0D2F0F7010E030E00F
:101EE00020E0042E04C0000F111F221F331F0A948C
:101EF000D2F760E070E0CB01D4FF0FC06FE070E07C
:101F000080E090E004C0660F771F881F991F4A95F4
:101F1000D2F76095709580959095C695C695C370DB
:101F2000602B712B822B932BC23049F058F4C130B7
:101F300019F00E9471142BCF0E945F1428CF0E94C9
:101F4000831425CF0E945D1422CF8695112311F0B2
:101F50008C2F8170882309F41ACF4D2F4295469516
:101F60004770440F440F0D2F0F7010E030E020E059
:101F7000042E04C0000F111F221F331F0A94D2F732
:101F800060E070E0CB01D4FF0FC06FE070E080E054
:101F900090E004C0660F771F881F991F4A95D2F7FB
:101FA0006095709580959095C695C695C370602B89
:101FB000712B822B932BC23049F058F4C13019F0A9
:101FC0000E943615E4CE0E942415E1CE0E944815E9
:101FD000DECE0E949914DBCECF70112329F08C2F16
:101FE0000E94BF148D2F1DCF8D2F0E945C0E8C2F51
:101FF0000E94E014CCCED23F89F160F4D03FC9F00A
:10200000D13F29F1112309F442C00111A8CE8C2F30
:102010008F7121C0D33F39F1D43FA1F7112369F16A
:10202000CF718C2F0E94BF1463E08C2F0E94C616C4
:10203000AECE112341F0053008F0A9CE8C2F8F7160
:102040000E940315A4CE063008F0A1CEF7CF8C2F46
:102050008F71112369F20E94BF1499CE8C2F8F715A
:102060001123C9F3C5CF112329F08C2F8F710E9442
:10207000AA148DCE0E94A5148ACE81E00E94DB16A0
:10208000023008F484CE82E00E94DB1680CE00236A
:1020900059F0D93309F0F4CE8FEF97EEE3E0815099
:1020A0009040E040E1F7EACE8C2F8F71A1CF4C2F0A
:1020B0004F706D2FC6010E9409040E94D51367CE90
:1020C0004C2F4F706D2FC6010E940C0460CEDF9123
:1020D000CF911F910F91FF90EF90DF90CF90BF9025
:1020E00008950F931F93CF93DF93EC01688179815B
:1020F0008A810E94FB158C010E945A150E945C1473
:10210000B801CE01DF91CF911F910F910C94630E16
:10211000CF93DF93EC018B819C81892B29F08881FF
:10212000998189238F3F59F4DF91CF910895CE0192
:102130000E947110CE01DF91CF910C947402CE01F8
:102140000E94C7038111F3CF0E943D16882361F3DB
:102150008A81882349F382E0DF91CF910C94DB16CA
:102160000E9464160E9474160E94901690E080E00F
:102170000E94570C90E080E00C946D0C0E942D168C
:102180000C94B0100E9454160C94BE10E92FE295E6
:10219000EF70E250EE3070F4F0E0ED5CFE4D0C9428
:1021A000BF20803F19F020F4883E20F481E008959C
:1021B000843FE1F380E00895883EC0F3813FD1F78A
:1021C000F5CF93FB882780F908950E94F1150C94B0
:1021D000C610CF93DF9300D000D00F92CDB7DEB7FB
:1021E0000F900F900F900F900F90DF91CF91089567
:1021F000CF93DF9300D000D000D0CDB7DEB72696C6
:102200000FB6F894DEBF0FBECDBFDF91CF9108951A
:102210001F93CF93DF93C0919E0116E080919F01A1
:102220008C1304C0DF91CF911F910895D0E01C9FC3
:10223000F0011D9FF00D1124E056FE4F40815181A9
:1022400062817381848195810E94F8102196C77004
:10225000E5CF4091D0015091D1016091D2017091B0
:10226000D3018091D4019091D5010C94F8101F9363
:10227000CF93DF938091D501807FA9F48091D20123
:10228000882389F080919E01C0919F016091D001C7
:102290007091D101A091D301B091D401D62FD72351
:1022A00016E0C81304C0DF91CF911F91089590E00C
:1022B000109711F0DF3F19F401968770F2CF189F45
:1022C0009001199F300D1124F901E056FE4F418114
:1022D0004713F2CF40814613EFCF42814111ECCF3B
:1022E000438154814A1B5B0B483C510528F7809180
:1022F000D5018F7080618093D501F901EB55FE4FB8
:1023000080818F708061808380ED91E00E948810D1
:10231000DF91CF911F910C940811AF92BF92CF9291
:10232000DF92EF92FF920F931F93CF93DF93CDB77E
:10233000DEB761970FB6F894DEBF0FBECDBF8C013C
:1023400085E0F801DE011D9601900D928A95E1F776
:10235000F80140815181E28080EDC82E81E0D82EC5
:102360006091D3017091D4016115710509F461C1C7
:102370009091D0012091D101892F82238F3F09F4C0
:1023800058C1A380B480F090D201F501E61BF70B91
:10239000FF2009F4FCC08091D501382F307FE83C44
:1023A000F10508F0B2C0311179C0FE2C251323C00D
:1023B000941321C0E1101FC08F7080618093D501FC
:1023C0000E942911C6010E9488108091D501F80150
:1023D00085838F2D61960FB6F894DEBF0FBECDBFFB
:1023E000DF91CF911F910F91FF90EF90DF90CF90F1
:1023F000BF90AF900895AB2829F0842F85238F3F9D
:1024000009F033C180E0F82FF170DF2E80FF3CC06F
:1024100080919E0120919F0136E0821315C04D8767
:102420005E878D859E850E94F115292F22952F703C
:102430002230F0F0243018F59F70F1F0F80195810A
:10244000907FD1F4D12C1EC090E0389FF001399FCD
:10245000F00D1124E056FE4F6181651306C06081C6
:10246000641303C062816E110FC001968770D5CFCF
:102470009F7011F0882331F3805E883018F3C80113
:102480000E948810FD2CA5CFEE2009F4A2CF8091E8
:10249000D50181608093D501F12C9BCF251306C017
:1024A000941304C0F801EE2009F48DC04D875E87B7
:1024B0008D859E850E94E510882319F1EE2009F193
:1024C0008091D501803270F02091D0013091D101FE
:1024D00038872F831986BB86AA868C87CE010796FC
:1024E0000E94881086E0F801A0EDB1E001900D9205
:1024F0008A95E1F70E9437110E942911FF24F39475
:1025000068CFC8010E948810F9CF311113C07A2D0D
:10251000B98AA88A6E2D89890E94E91080ED91E020
:102520000E94881086E0F60111928A95E9F70E94D0
:102530002911B2CF25130FC094130DC0E1100BC0A9
:10254000F8018583C8010E94881086E0F601119287
:102550008A95E9F73ECF4D875E878D859E850E94DF
:10256000E510882371F2EE2061F28091D50180326E
:1025700008F4B8CF2091D0013091D1013A8329835A
:102580001B82BD82AC828E83CE010196A9CFE83C2E
:10259000F10508F041C0FE2CEE2009F4B2CF25135E
:1025A0002AC0941328C08091D50180FD1BC0982FAC
:1025B000907FC1F0F8018583903F31F0982F907F94
:1025C000905F8F70892B8583C8010E94881086E0F8
:1025D000F801A0EDB1E001900D928A95E1F70E941B
:1025E0002911F7CE86E0F801A0EDB1E001900D923F
:1025F0008A95E1F7EECE4D875E878D859E850E9498
:10260000E51081116FCF8091D50181608093D50154
:10261000C8010E948810DDCE7A2DB98AA88A6E2D55
:1026200089890E94E91086E0F60111928A95E9F7FE
:10263000D6CFEE2009F465CF4D875E878D859E85C8
:102640000E94E510F82E882309F45BCF86E0F8019C
:10265000A0EDB1E001900D928A95E1F780ED91E057
:102660000E94640D0E943711BACF81E08E25CBCE37
:1026700088EC90E008951F93CF93DF93CDB7DEB73A
:102680002C970FB6F894DEBF0FBECDBF4F8358878F
:1026900069877A878B879C87CE0107960E948D1168
:1026A000882369F08A859B85892B39F04F8158856D
:1026B000842F85238F3F09F071C016E05FC086E04C
:1026C000FE013796DE01119601900D928A95E1F791
:1026D0008A859B85892B89F38F81988589238F3FF4
:1026E00061F320919F0130E0C9010196877099271D
:1026F00040919E014817190671F40E94C210109271
:102700009F0110929E0186E0E0EDF1E0DF011D9255
:102710008A95E9F7D2CF96E0929FD001939FB00DB2
:102720001124A056BE4FFE01319601900D929A954C
:10273000E1F780939F010E940811BFCF819FC001E4
:10274000112480569E4F0E948D118823E9F0E0915C
:102750009E011E9FF0011124E056FE4F40815181E1
:1027600062817381848195810E94F81080919E011D
:1027700090E001968770992780939E0180919E0139
:1027800090919F018913DACF2C960FB6F894DEBF93
:102790000FBECDBFDF91CF911F91089569857A85D6
:1027A0008B859C850E94F81088CFEF92FF920F9343
:1027B0001F93CF93DF938C01892B81F0F12CEE24B2
:1027C000E394E8012196F8018491843770F4843011
:1027D00008F05FC08130B1F08230A1F1DF91CF917C
:1027E0001F910F91FF90EF900895853709F44CC029
:1027F00008F43DC09CE7980F903780F78F770E94D0
:10280000F30D49C00E5F1F4FFE01849190E2980FB7
:10281000983060F48770FE2D01C0FF0F8A95EAF7AB
:102820008F2F0E9467160E94901602C00E94690DA9
:102830008F2D815030F2EFE9FFE03197F1F700C0C2
:102840000000F7CF0E5F1F4FFE01849190E2980FBA
:10285000983050F48770FE2D01C0FF0F8A95EAF77B
:102860008F2F0E946D16DFCF0E94F30DE1CF0E5F18
:102870001F4FFE01C491C150D8F28FE99FE001972C
:10288000F1F700C00000F7CF0E5F1F4FFE01F4907C
:10289000CFCF0E94690D8E01CBCF08950C944D14BB
:1028A0000E944E146093F3017093F4018093F5013C
:1028B0009093F6010C94B01008950C9450140F935B
:1028C0001F930091F3011091F4012091F5013091D3
:1028D000F601602B712B822B932B1F910F910C947F
:1028E00050140F931F930091F3011091F401209164
:1028F000F5013091F60160237123822393231F9108
:102900000F910C9450140F931F930091F3011091A9
:10291000F4012091F5013091F6016027712782279B
:1029200093271F910F910C9450140C944D140C94F8
:1029300095140E9497146093EF017093F0018093B7
:10294000F1019093F2010C94B01060E070E0CB01C3
:102950000C9499140F931F9341E050E060E070E0F5
:102960008A019B0104C0000F111F221F331F8A958B
:10297000D2F7C901B8011F910F910C9499140F93CC
:102980001F9341E050E060E070E004C0440F551F29
:10299000661F771F8A95D2F78091EF019091F00121
:1029A000A091F101B091F2018A019B01082B192B32
:1029B0002A2B3B2BC901B8011F910F910C9499143C
:1029C0000F931F9341E050E060E070E004C0440FBB
:1029D000551F661F771F8A95D2F7CB01BA01609504
:1029E0007095809590950091EF011091F0012091E4
:1029F000F1013091F20160237123822393231F910F
:102A00000F910C9499140F931F9341E050E060E0F4
:102A100070E004C0440F551F661F771F8A95D2F7D8
:102A20008091EF019091F001A091F101B091F2013C
:102A30008A019B01082719272A273B27C901B801CA
:102A40001F910F910C9499140F931F930091EF0114
:102A50001091F0012091F1013091F201602B712B66
:102A6000822B932B1F910F910C9499140F931F930A
:102A70000091EF011091F0012091F1013091F201EC
:102A800060237123822393231F910F910C94991437
:102A90000F931F930091EF011091F0012091F1012C
:102AA0003091F20160277127822793271F910F91A0
:102AB0000C949914089527E0929F800D1124982F6B
:102AC000977041E001C0440F9A95EAF78695869584
:102AD000869595E0899FF0011124EA52FE4F90E01F
:102AE00080E070E05191DF0111979B01082E02C038
:102AF000369527950A94E2F72170219525272423FE
:102B000025272C9301968530910561F7089527E0DC
:102B1000929F800D1124982F9770869586958695A3
:102B200025E0829FF0011124EA52FE4F50E040E080
:102B300080E0219130E0092E02C0369527950A9455
:102B4000E2F721703327042E01C0220F0A94EAF71E
:102B5000822B4F5F5F4F4530510559F70895BF9263
:102B6000CF92DF92EF92FF920F931F93CF93DF9359
:102B70008C01C090EF01D090F001E090F101F09055
:102B8000F2018091F3019091F401A091F501B091CF
:102B9000F601C82AD92AEA2AFB2ACFE1D0E0BC2EC6
:102BA000D701C6010C2E04C0B695A79597958795B9
:102BB0000A94D2F780FD0EC0219788F7B12C8B2D97
:102BC000DF91CF911F910F91FF90EF90DF90CF9009
:102BD000BF900895B8018C2F0E941504019761F3EE
:102BE000EECFCF93DF93EC010E94AF15BE01DF91D2
:102BF000CF910C9415041F93CF93DF93EB01909129
:102C00009D01992331F0CB01DF91CF911F910C945D
:102C1000F115882379F0CB010E94AF15182F682F8A
:102C2000CE010E945B15BE01812FDF91CF911F91D4
:102C30000C941504CB010E948715182FF4CF682F30
:102C400080910001909101010C943118682F8091BE
:102C50000001909101010C943C1880910001909129
:102C600001010C9447188091F7018595859585950C
:102C700008958091F701877008959091F7019770FA
:102C800081E009F480E0089580911B0208959091FD
:102C90001B02892B80931B020895809590911B0243
:102CA000982390931B02089510921B02089590910F
:102CB0001A02892B80931A020895809590911A0226
:102CC000982390931A02089510921A0208959091F1
:102CD0001902892B80931902089580959091190209
:102CE00098239093190208951092190208958091E3
:102CF000F801089508950C947A169091F8019817A8
:102D000021F08093F8010C947B1608958091F801CE
:102D1000882329F01092F80180E00C947B16089526
:102D2000E0910001F091010180911B028083E0910C
:102D30000001F0910101808190911A02892B80831A
:102D4000E0910001F0910101808190911902892B9D
:102D500080839091F801992381F0E0910001F09136
:102D600001018081892B8083809100019091010174
:102D70000E949D1781110E948616809100019091FA
:102D800001010C943D0C08950C94C31698E0899FA2
:102D900090011124622B6093F7010E94BF1480916F
:102DA000F7018595859585950C94C4161092F701C9
:102DB00080E00C94C4169091F7018095892380934C
:102DC000F701282F277071F4282F082E000C330BE1
:102DD0009217130639F08595859585950E94E01424
:102DE0000C94D61608956FEF7FEF90E080E00C947E
:102DF000F82090E080E00E94D42021E08C3E9E4F9D
:102E000009F020E0822F089582E090E00C94CC201D
:102E100083E090E00C94CC20CF9384E090E00E947B
:102E2000CC20C82F81E290E00E94CC20982F8C2FDC
:102E3000CF910895CF93C92F682F84E090E00E942E
:102E4000DA206C2F81E290E0CF910C94DA20AB0174
:102E5000BC018FE090E00C94EC20AB01BC0183E15D
:102E600090E00C94EC2060E070E0CB010C942D1706
:102E700060E070E0CB010E9427170C9433176CEED2
:102E80007EEF90E080E00E94F82060E082E090E039
:102E90000E94DA2060E083E090E00E94DA20109245
:102EA000F3011092F4011092F5011092F60160E026
:102EB00084E090E00E94DA2060E081E290E00E94ED
:102EC000DA2060E085E090E00E94DA2060E086E0B1
:102ED00090E00E94DA206FEF87E090E00E94DA2015
:102EE00040E050E0BA0188E090E00E94EC2060E011
:102EF0008DE090E00E94DA2040E050E0BA0188E1E5
:102F000090E00E94EC2060E087E190E00E94DA20EF
:102F100040E050E0BA018CE190E00E94EC2060E0DB
:102F200080E290E00E94DA200C9438170C943F174E
:102F3000682F8EE090E00C94DA20FC0132968091AC
:102F40000C01882321F080914E029EE187FF96E0DC
:102F500080E0915008F4089521912223D1F38F5FEE
:102F6000F8CF662301F120910C012223F1F020918A
:102F70004E0227FF1AC0462F4695469546954E317C
:102F800090F4677021E030E002C0220F331F6A9591
:102F9000E2F7840F911DFC01828190E02823392300
:102FA00081E0232B69F480E00895FC0132960896B5
:102FB0002191261721F0E817F907D1F7F4CF81E026
:102FC00008959C01FC0132969FEF80E041914617E5
:102FD00051F09F3F19F4411101C0982F8F5F863047
:102FE000A9F79F3F09F40895290F311D97FD3A95E0
:102FF000F90162830895FC01329608962191261307
:1030000003C0DF0111971C92E817F907B9F708957B
:10301000E62FE695E695E695EE3168F4E80FF92F90
:10302000F11D677021E030E001C0220F6A95EAF7D8
:103030008281822B82830895E62FE695E695E695B8
:10304000EE3170F4E80FF92FF11D677021E030E0E8
:1030500001C0220F6A95EAF72095828128232283F6
:10306000089520910C01222329F020914E0227FD82
:103070000C9408180C94E11720910C01222329F0DC
:1030800020914E0227FD0C941C180C94FB17FC0198
:10309000329680910C01882351F080914E0287FF77
:1030A00006C08EE1DF011D928A95E9F7089586E05A
:1030B000F9CF089508950C945A180E945B188091D6
:1030C0005402843049F110921D0288E190E020E41E
:1030D0000FB6F894A895809360000FBE209360000F
:1030E00080E00E94AF030E945B1883B7817F8460F9
:1030F00083BF83B7816083BF7894889583B78E7FC1
:1031000083BF0FB6F894A895809160008861809382
:103110006000109260000FBE08950895CF930E9442
:1031200059180E9460060E948D18C0E08C2F0E94E2
:103130000106811105C0CF5FC530C1F7CF91089559
:1031400081E0FCCF08950C94A2180E94C2100E9446
:10315000310C0E94AF030C94A3181F921FB61F924C
:1031600011248F939F93AF93BF9380911D02811180
:1031700013C080914A0290914B02A0914C02B091F1
:103180004D024196A11DB11D80934A0290934B02BE
:10319000A0934C02B0934D02BF91AF919F918F913C
:1031A0001F901FBE1F90189582E084BD93E095BDCF
:1031B0009AEF97BD80936E0008952FB7F894809191
:1031C0004A0290914B02A0914C02B0914D022FBF48
:1031D00008952FB7F89460914A0270914B02809144
:1031E0004C0290914D022FBF08959C014FB7F89467
:1031F00080914A0290914B02A0914C02B0914D02F5
:103200004FBF821B930B089578941F921FB61F9295
:1032100011248F939F93AF93BF9380914A02909113
:103220004B02A0914C02B0914D020196A11DB11D1F
:1032300080934A0290934B02A0934C02B0934D02AC
:10324000BF91AF919F918F911F901FBE1F901895B6
:1032500087E797E7909301088093000888E19AE058
:103260000FB6F894A895809360000FBE909360000D
:10327000FFCF0C9448070E9460062FEF86E791E08D
:10328000215080409040E1F700C000000E9460069D
:1032900080E00E94010681FF04C00E9439190C944D
:1032A000281908950E94F916811102C00E949617EC
:1032B0000E94041780931C020E940C1790934F02E7
:1032C00080934E020E940817682F70E090E080E023
:1032D0000E945D146091EF017091F0018091F10105
:1032E0009091F2010C94971480913E0208950895F4
:1032F000CF93DF9300D00F92CDB7DEB790915402F9
:10330000943011F589837B836A839093E9008FEF72
:103310009091E800815095FD06C095ED9A95F1F7E2
:1033200000008111F5CF8091E80085FF0DC050E0CD
:1033300040E063E070E0CE0101960E94DF1B8091C7
:10334000E8008E778093E8000F900F900F90DF9148
:10335000CF910895BC0184E00C947819BC0183E0FE
:103360000C947819CF93DF93EC0180910C018823A2
:10337000B1F180914E0287FF32C060E284E0809319
:10338000E9008FEF9091E800815095FD06C095ED22
:103390009A95F1F700008111F5CF8091E80085FF43
:1033A0001BC080910C0170E050E040E0811104C02E
:1033B00050E040E068E070E0CE010E94DF1B8091A9
:1033C000E8008E778093E80080E2FE01AEE1B2E093
:1033D00001900D928A95E1F7DF91CF91089568E011
:1033E00081E0CDCFCF93FC01603221F58091540272
:1033F000843001F5C091E900CF702091EC00922F4C
:10340000917020FD90E8C92B82E08093E9008091C3
:10341000E80080FF0CC050E040E060E270E0CF01C7
:103420000E94DF1B8091E8008E778093E800CF70C8
:10343000C093E900CF91089580915302811109C092
:103440000E94BE1D0E941B1E8091E200846080933A
:10345000E2000895109253020895089508950C947F
:10346000A51842E061EC81E00E943A1D42E261EC65
:1034700084E00E943A1D42E261EC82E00E943A1D23
:1034800042E260EC83E00C943A1D80915602833056
:1034900009F461C030F48130D1F1823009F49DC06B
:1034A00008958A3009F489C08B3009F46FC08930DF
:1034B00009F050C080915502813209F04BC08091D3
:1034C000590290915A02009719F0029709F042C0F0
:1034D0008091E800877F8093E8008091E80082FF78
:1034E00035C09091F3008091F200029729F4809109
:1034F000F1008B7F813021F48091F10080933E02B6
:103500008091E8008B778093E8000C946E1D809189
:103510005502813AF9F48091E800877F8093E800B2
:103520008091590290915A02892B61F460E28EE1F8
:1035300092E070E00E947D1C8091E8008B77809380
:10354000E800089560E090E080E0F3CF80915402BD
:103550008111C3CF089580915502813AD9F78091A6
:10356000590290915A02892BA9F78091E800877F30
:103570008093E8008091E80080FFFCCF80910C01EF
:103580008093F1008091E8008E77BDCF8091550245
:10359000813201F78091590290915A02892BD1F61C
:1035A0008091E800877F8093E8000E946E1D8091E3
:1035B000570280930C010C94C21080915502813205
:1035C00049F68091E800877F8093E8000E946E1D95
:1035D0008091580280933F02089580915502813A6C
:1035E00009F0B8CF8091E800877F8093E800809150
:1035F000E80080FFFCCF80913F02C2CFCDB7DEB79D
:10360000A0970FB6F894DEBF0FBECDBF84B7877FFB
:1036100084BF0FB6F894A89580916000886180936C
:103620006000109260000FBE80E890E00FB6F89442
:1036300080936100909361000FBE0E94910C0E94E4
:10364000BE1D0E941B1E8091E20084608093E200F8
:1036500078940E94A4200E949B0C82E091E00E943A
:103660002C0C13E080915402853039F10E94A50C96
:10367000809154028430B1F71093E9008091E80002
:1036800082FFF0CF8091E80090E085FF09C050E014
:1036900040E060E270E0CE0101960E942E1C91E0B5
:1036A0008091E8008B778093E8009923D9F260E25B
:1036B000CE0101960E94AA07D5CF0E945D18809185
:1036C0005202882379F20E948E18882359F20E94B0
:1036D000C91BC8CF0C946C1B292F3327233031050D
:1036E00021F168F42130310509F449C02230310557
:1036F00009F44AC090E080E030E020E029C02132A7
:10370000310581F122323105A9F76330710590F757
:10371000FB01EE0FFF1FE258FE4F208131816558FB
:103720007E4FFB01808190E013C099278130910585
:1037300099F0009741F08230910589F00397D1F616
:10374000E4E6F2E002C0ECE8F2E0849190E09F0150
:10375000FA01318320830895EAE7F2E0F6CFEAE642
:10376000F2E0F3CF6330710528F6660F771FFB0197
:10377000EC57FE4F2081318189E090E0E9CF82E172
:1037800090E02BEE32E0E4CF8BE590E020E932E0F0
:10379000DFCF80E189BD82E189BD09B400FEFDCFA4
:1037A0008091D8008F7D8093D8008091E000826066
:1037B0008093E0008091E00081FDFCCF0895AF92FE
:1037C000BF92CF92DF92FF920F931F93CF93DF931D
:1037D0006C01EB018A010E948D1DF82E811123C01E
:1037E0000115110539F0F80180819181C81BD90BB1
:1037F000C80ED91EB12CA12C2097A9F08091E80009
:1038000085FD22C08091E8008E778093E800011545
:103810001105A1F0F80180819181A80EB91EB18235
:10382000A08285E0F82E8F2DDF91CF911F910F910F
:10383000FF90DF90CF90BF90AF9008950E948D1DB4
:103840008823D1F2F82EEFCFF60181916F0180939A
:10385000F1002197FFEFAF1ABF0ACECFAF92BF9210
:10386000CF92DF92FF920F931F93CF93DF936C0160
:10387000EB018A010E948D1DF82E811123C00115D4
:10388000110539F0F80180819181C81BD90BC80E50
:10389000D91EB12CA12C2097A9F08091E80085FDBC
:1038A00022C08091E8008B778093E8000115110514
:1038B000A1F0F80180819181A80EB91EB182A08289
:1038C00085E0F82E8F2DDF91CF911F910F91FF9002
:1038D000DF90CF90BF90AF9008950E948D1D8823F8
:1038E000D1F2F82EEFCF8091F100F60181936F01B4
:1038F0002197FFEFAF1ABF0ACECFFC0180915B0288
:1039000090915C0286179707A0F06115710529F464
:103910009091E8009E779093E80090E06115710522
:1039200051F4911108C08091E80082FF34C080E01A
:103930000895BC01F2CF809154028823C1F18530F3
:10394000C1F18091E80083FD30C08091E80082FDE4
:10395000EACF8091E80080FFE1CF8091F3002091D1
:10396000F200382F6115710519F02830310558F033
:1039700091E02830310509F090E02091E8002E77A1
:103980002093E800CBCF81918093F10061507109C1
:103990002F5F3F4FE7CF80915402882341F085305D
:1039A00041F08091E80083FFBECF81E0089582E07E
:1039B000089583E00895FC0180915B0290915C0280
:1039C00086179707A0F06115710529F48091E8002A
:1039D0008E778093E80090E06115710551F49111A4
:1039E00008C08091E80082FF35C080E00895BC01E6
:1039F000F2CF809154028823C9F18530C9F18091BA
:103A0000E80083FD31C08091E80082FDEACF80911B
:103A1000E80080FFE1CF8091F3002091F200382F81
:103A20006115710519F02830310558F091E0283002
:103A3000310509F090E08091E8008E778093E800EE
:103A4000CBCF84918093F1003196615071092F5F43
:103A50003F4FE6CF80915402882341F0853041F0FA
:103A60008091E80083FFBDCF81E0089582E0089552
:103A700083E00895982F973028F08F708093E900A5
:103A800081E008959093E900242F762F50E0981755
:103A900031F07091EC002091ED005091F00021FD8B
:103AA00002C09F5FE8CF3091EB003E7F3093EB0088
:103AB0003091ED003D7F3093ED003091EB003160AF
:103AC0003093EB007093EC002093ED005093F000E6
:103AD0002091EE0027FDE5CF80E00895809155020A
:103AE00087FF13C08091E80082FF06C08091E80044
:103AF0008B778093E80004C0809154028111F2CF4B
:103B00000895809154028823D9F38091E80080FFC2
:103B1000F8CF8091E8008E77ECCF2091E4003091CF
:103B2000E50095E6A9012091EC00822F817020FF2D
:103B300006C08091E80080FF06C080E008952091D3
:103B4000E80022FD1AC080915402882389F0853054
:103B500089F08091EB0085FD0FC02091E400309149
:103B6000E50042175307F9F29150E1F684E0089519
:103B700082E0089583E0089581E008950E942C1E5C
:103B80000E94341EE0EEF0E0808181608083E8EDE9
:103B9000F0E080818F77808319BCA7EDB0E08C9135
:103BA0008E7F8C9380818F7E808310925302089544
:103BB0000F931F93CF93DF930E942C1E0E94341EFD
:103BC000C8EDD0E088818F7788838881806888837A
:103BD00088818F7D888319BC109254021092500204
:103BE000109252021092510200EE10E0F801808112
:103BF0008B7F808388818160888342E060E080E001
:103C00000E943A1DE1EEF0E080818E7F8083E2EE3B
:103C1000F0E0808181608083808188608083F8010A
:103C200080818E7F8083888180618883DF91CF91BE
:103C30001F910F910895E8EDF0E080818F7E8083E1
:103C4000E7EDF0E080818160808384E082BF81E0E5
:103C5000809353020C94D81DE8EDF0E080818E7FB4
:103C600080831092E20008951092DA001092E10031
:103C700008951F920F920FB60F9211242F933F9326
:103C80004F935F936F937F938F939F93AF93BF9364
:103C9000EF93FF938091E10082FF0BC08091E200DF
:103CA00082FF07C08091E1008B7F8093E1000E943A
:103CB000A3208091DA0080FF19C08091D80080FF96
:103CC00015C08091DA008E7F8093DA008091D90050
:103CD00080FF96C080E189BD82E189BD09B400FE04
:103CE000FDCF81E0809354020E941C1A8091E10074
:103CF00080FF19C08091E20080FF15C08091E20032
:103D00008E7F8093E2008091E20080618093E200E8
:103D10008091D80080628093D80019BC85E08093A0
:103D200054020E942E1A8091E10084FF2BC08091E2
:103D3000E20084FF27C080E189BD82E189BD89B5A9
:103D4000982F917080FFFBCF8091D8008F7D80935A
:103D5000D8008091E1008F7E8093E1008091E200A5
:103D60008F7E8093E2008091E20081608093E20088
:103D700080915002882309F449C084E08093540262
:103D80000E942F1A8091E10083FF29C08091E200F8
:103D900083FF25C08091E100877F8093E10082E06E
:103DA00080935402109250028091E1008E7F8093A4
:103DB000E1008091E2008E7F8093E2008091E2003A
:103DC00080618093E20042E060E080E00E943A1D62
:103DD0008091F00088608093F0000E942D1AFF917E
:103DE000EF91BF91AF919F918F917F916F915F9173
:103DF0004F913F912F910F900FBE0F901F901895EC
:103E000019BC109254020E942A1A70CF8091E300CC
:103E100087FD93E090935402B3CF1F920F920FB699
:103E20000F9211242F933F934F935F936F937F9340
:103E30008F939F93AF93BF93CF93DF93EF93FF93B2
:103E4000D091E900DF708091EC00C82FC17080FD37
:103E5000C0E81092E9008091F000877F8093F00025
:103E600078940E94511F1092E9008091F0008860C0
:103E70008093F000CD2BCF70C093E900FF91EF91BC
:103E8000DF91CF91BF91AF919F918F917F916F9172
:103E90005F914F913F912F910F900FBE0F901F9008
:103EA00018951F93CF93DF93CDB7DEB7AA970FB6C0
:103EB000F894DEBF0FBECDBF85E592E02091F10002
:103EC000FC012193CF01F2E08D359F07B9F70E94E5
:103ED000451A8091E80083FF1EC1809155029091A0
:103EE00056029A3008F017C1E92FF0E0EF5BFE4D63
:103EF0000C94BF20803899F0823809F00CC1809171
:103F000059028F70873008F006C18093E9008091D4
:103F1000EB0085FB882780F91092E90006C08091AC
:103F2000510290915202911182609091E800977F26
:103F30009093E8008093F1001092F1008091E800E6
:103F40008E77E5C0882309F4D3C0823009F0E3C03E
:103F5000809157028111D6C0809159028F702FEF46
:103F6000280F263008F0D7C08093E9002091EB009D
:103F700020FFC8C0933031F48091EB0080628093C1
:103F8000EB00C0C09091EB0090619093EB0021E0BA
:103F900030E001C0220F8A95EAF72093EA001092E0
:103FA000EA008091EB008860EACF8111B4C01091E3
:103FB00057021F778091E3008078812B8093E30084
:103FC0008091E800877F8093E8000E946E1D8091B9
:103FD000E80080FFFCCF8091E30080688093E300DD
:103FE00082E0111183E08093540295C080588230A2
:103FF00008F091C080915702909158028C3D23E0C7
:104000009207A1F583E08A838AE289834FB7F89407
:10401000DE01139620E03EE051E2E32FF0E0509302
:104020005700E49120FF03C0E295EF703F5FEF700F
:104030008E2F90E0EA30C0F0C7968D939D932F5F4E
:10404000243159F74FBF8091E800877F8093E800C3
:104050006AE270E0CE0101960E947D1C8091E8002A
:104060008B778093E80057C0C096E7CF60915902E4
:1040700070915A02AE014F5F5F4F0E946A1BBC01F4
:10408000892B09F448C09091E800977F9093E8004D
:1040900089819A810E94DB1CE1CF8038E1F5809113
:1040A000E800877F8093E800809150028093F100C0
:1040B00045CF811130C090915702923060F58091C8
:1040C000E800877F8093E800909350020E946E1D65
:1040D00080915002882311F084E005C08091E300B4
:1040E00087FDFACF81E0809354020E94311A13C0F9
:1040F00080915702813079F481E0933009F080E0BB
:10410000809352021092E9008091E800877F8093AB
:10411000E8000E946E1D8091E80083FF0AC0809134
:10412000E800877F8093E8008091EB0080628093B5
:10413000EB00AA960FB6F894DEBF0FBECDBFDF919D
:10414000CF911F9108950895CF93809154028823B1
:10415000A1F0C091E900CF709091EC00892F81709F
:1041600090FD80E8C82B1092E9008091E80083FD63
:104170000E94511FCF70C093E900CF910895EE0FB8
:10418000FF1F0590F491E02D099469279627692770
:104190007827872778270895F999FECF92BD81BDAA
:1041A000F89A992780B50895A8E1B0E042E050E080
:1041B0000C940021262FF999FECF92BD81BDF89A6B
:1041C000019700B4021639F01FBA20BD0FB6F8945B
:1041D000FA9AF99A0FBE08950396272F0E94DB20C2
:1041E0000E94DA20252F0E94DB20242F0C94DB2054
:1041F0000196272F0E94DB200C94DA20DC01CB01F2
:10420000FC01F999FECF06C0F2BDE1BDF89A3196E6
:1042100000B40D9241505040B8F70895F894FFCF84
:10422000BC07C907F007FC0707081208150815089E
:1042300015085E08610818081C08240831083E08A3
:104240004108440851089A0E9A0EF20EF20E440FDD
:10425000C70EC70EC70E600FEC0FFB0FFB0F5710FA
:10426000C70EC70E6010D110D110DA10DA10DC10B2
:10427000DA10DA10DA10D110D110E110DA10DA10F9
:10428000E1107A1FA21F8B20A21F8B20D51FF61FC3
:064290008B204D20592097
:10429600F9017419B2197719AE19AA1901E200E9E0
:1042A60000EA00B500B600B700CD008301CC008A55
:1042B60001920194012102230224022502260227EB
:1042C600022A02B300B4006F007000818283343189
:1042D60032339091929394356697E200E900EA00B2
:1042E600B500B600B700CD008301CC008A0192016B
:1042F60094012102230224022502260227022A0211
:10430600B300B4006F00700081828340226D8C037D
:0A431600FD021F03A202BB02DB023E
:00000001FF
